:020000040800F2
:10000000A02C0020ED010008533D000895380008A1
:10001000513D0008F10800082F61000800000000B1
:10002000000000000000000000000000D1400008B7
:10003000050A000800000000CF4000084D410008FC
:10004000070200080702000807020008070200086C
:10005000070200080702000807020008070200085C
:1000600007020008070200080702000895090008B7
:10007000070200080702000807020008070200083C
:10008000070200080000000007020008070200083D
:10009000C160000807020008070200080702000804
:1000A00007020008CD410008070200080702000807
:1000B000D9410008E54100080702000807020008CE
:1000C00007020008070200080702000807020008EC
:1000D00007020008070200080702000807020008DC
:1000E00007020008070200080702000807020008CC
:1000F00007020008070200080702000800000000CD
:1001000000000000070200080000000007020008CD
:1001100007020008000000000702000807020008AC
:10012000070200080702000807020008070200088B
:10013000070200080000000000000000070200089D
:10014000070200080702000800000000000000008D
:10015000000000000000000000000000000000009F
:10016000000000000000000000000000070200087E
:10017000070200080000000000000000000000006E
:10018000000000000702000800000000000000005E
:10019000000000000000000000000000000000005F
:1001A000000000000000000007020008070200082D
:1001B000070200080702000807020008000000000C
:1001C000000000000702000800000000000000001E
:1001D0000702000807020008DFF80CD000F0F6FA6A
:1001E00000480047256E0008A02C002006488047E4
:1001F00006480047FEE7FEE7FEE7FEE7FEE7FEE70C
:10020000FEE7FEE7FEE7FEE7BD410008D901000872
:100210002DE9F05F0546002092469B46884606463B
:10022000814640241BE0284641464746224600F0CE
:1002300017FA53465A46C01A914110D31146184630
:10024000224600F0FEF92D1A67EB01084F462246C0
:100250000120002100F0F5F917EB00094E41201EA6
:10026000A4F10104DFDC484631462A464346BDE896
:10027000F09F40EA01039B0703D009E008C9121F61
:1002800008C0042AFAD203E011F8013B00F8013B50
:10029000521EF9D27047D2B201E000F8012B491E7C
:1002A000FBD270470022F6E710B513460A46044613
:1002B0001946FFF7F0FF204610BD2DE9FE4F80469E
:1002C00081EA0300C00F0C46009021F0004123F0AA
:1002D0000045B8EB0200A94105D2404621469046B0
:1002E0001C460B46024623F00040104347D0270D22
:1002F000C7F30A00C3F30A510290401A0190402844
:100300006BDAC3F3130040F4801B0098924620B1CF
:100310000023D2EB030A63EB0B0B01985946C0F1A3
:100320004002504600F08DF906460D4650465946AB
:10033000019A00F0A5F910EB08006141002487EA5A
:10034000115284EAE7731A4340D0009A62B3019ACB
:10035000012A4FEA075215DC001B61EB02014FF046
:10036000004202EA0752CDE90042001C41F580112B
:1003700032462B4600F0DCF903B0BDE8F08F404672
:100380002146F9E7001B61EB0201001C41F58013D7
:1003900000185B412018A2F5001747EB030140EA63
:1003A000D570B6196D4111E06D084FEA360645EA81
:1003B000C0754FEA0752001B61EB0201001C41F5BA
:1003C000801149084FEA30000019514132462B464E
:1003D00003B0BDE8F04F00F09CB900980122400046
:1003E0000023D0EB020263EBE073009821464FEA52
:1003F000E074B8EB000061EB0401E9E783F000432F
:100400005BE781F0004158E72DE9FE4F81EA0304E4
:1004100004F0004421F0004100944FF0000B23F061
:10042000004350EA01045ED052EA03045BD0C3F3F8
:100430000A54C1F30A552C44A4F2F3340194A0FBEE
:100440000254C1F3130141F48011C3F3130343F4C5
:10045000801301FB024400FB034E840A970A44EA1E
:10046000815447EA8357A4FB076802958D0A05FB70
:1004700007854FEA932C04FB0C542705029D4FEA95
:10048000065847EA1637B5EB08056EEB070C870EE2
:10049000920E47EA811742EA8312A7FB0201B6EBEC
:1004A0000B0164EB00042B0D43EA0C335E1844EBA4
:1004B0001C50DA465146E7FB0201C5F313044FEA2C
:1004C0000B3343EA14534FEA0432019C43EA060318
:1004D000A4F10C040294009CCDE900B400F028F9CA
:1004E00003B0BDE8F08F00200146F9E72DE9F04D9B
:1004F00081EA030404F0004B21F0004514464FF05C
:10050000000A23F0004150EA050220D054EA01021B
:100510001DD0C5F30A570246C5F31303C1F31300F8
:10052000C1F30A5640F4801543F48013A7EB060884
:10053000101BD64608F2FD3873EB050002D308F114
:10054000010801E092185B41B8F1000F03DA0020C6
:100550000146BDE8F08D00204FF480110646844628
:100560000EE0171B73EB050705D3121B63EB0503A6
:1005700006434CEA010C49084FEA300092185B41EF
:1005800050EA0107EDD152EA030012D082EA0400DA
:1005900083EA0501084305D0101BAB4106D20122B6
:1005A000002306E000224FF0004302E06FF001025A
:1005B00053101AEB06004CEB085110EB0A0041EB0C
:1005C0000B01BDE8F04D00F0A4B80EB540F2334188
:1005D00002910021CDE900110A460B4600F0A8F86F
:1005E00003B000BD00F0004230F000400AD0C10D61
:1005F00001F56071C0F3160042EA0151C2084007DC
:100600001143704700200146704701F0004330B4A9
:1006100021F0004150EA010206D00A0DA2F56072F5
:10062000C1F31301002A02DC30BC00207047440FE4
:1006300044EAC104C100E01830BC00EBC25000F035
:1006400031B8202A04DB203A00FA02F1002070477A
:100650009140C2F1200320FA03F319439040704700
:10066000202A04DB203A21FA02F00021704721FA07
:1006700002F3D040C2F1200291400843194670476E
:10068000202A06DBCB17203A41FA02F043EAE07356
:1006900006E041FA02F3D040C2F120029140084343
:1006A000194670470029A8BF7047401C490008BF81
:1006B00020F00100704710B4B0FA80FC00FA0CF092
:1006C00050EA010404BF10BC704749B1CCF12004CA
:1006D00021FA04F411FA0CF118BF01212143084357
:1006E000A3EB0C01CB1D4FEA00614FEA102042BF83
:1006F000002010BC704700EBC35010440029A4BF79
:1007000010BC7047401C490008BF20F0010010BC1D
:10071000704710B5141E73F1000408DA401C41F153
:10072000000192185B411A4301D120F0010010BD75
:100730002DE9F04D92469B4611B1B1FA81F202E0EB
:10074000B0FA80F220329046FFF77BFF04460F4656
:1007500040EA0A0041EA0B0153465A46084313D0C7
:10076000114653EA010019D0C8F140025046FFF784
:1007700077FF05460E46504659464246FFF761FF51
:10078000084305D0012004E020463946BDE8F08D3D
:100790000020054346EAE0762C4337430A98630578
:1007A000E40AA0EB08000022FD0A44EA47540A309C
:1007B00002D500200146E9E7010510196941DDE98C
:1007C000084500196941BDE8F04DA2E7064C074D08
:1007D00006E0E06840F0010394E807009847103411
:1007E000AC42F6D3FFF7FCFC787200089872000860
:1007F0000EB5C10F80EAE0700844CA07002140F23C
:1008000033438DE80E000A460B46FFF791FF03B015
:1008100000BD70B5C1F30A5201F000450024C1F3D8
:10082000130140F2FF3341F480119A4201DA0020B3
:1008300070BD40F233439A42A2F2334203DC52428B
:10084000FFF70EFF00E090402C43F1D0404270BD16
:1008500070B58C1810F8015B15F0070301D110F882
:10086000013B2A1106D110F8012B03E010F8016BAF
:1008700001F8016B5B1EF9D12B0705D40023521E32
:100880000DD401F8013BFAE710F8013BCB1A921C9A
:1008900003E013F8015B01F8015B521EF9D5A14298
:1008A000D8D3002070BD00000C490020486006F03D
:1008B0005FFB06F03BFA01225103094800F0FDFFFF
:1008C000084802F09BFB084802F098FB074802F03A
:1008D00095FB00BF06F050FAFCE70000F80100208D
:1008E00000040048DC0200202803002074030020DC
:1008F000FEE70020704700207047000010B509484F
:1009000004F0FCF90748084AD0F8BC1200200B5C40
:100910001354401CC0B20828F9D3044908200870B9
:10092000002010BD6407002001020020000200200A
:10093000164830B4154980788979202814D0134A94
:100940002A28D4781379527912D02B280ED164F347
:10095000070063F30F2062F3174061F31F6030BCA0
:1009600000EE100A06F0B4BB0948016030BC7047C5
:1009700064F3070063F30F2062F3174061F31F6015
:1009800030BC00EE100A06F0A9BB000001020020F6
:10099000FC010020014800F097BD00007C0200200F
:1009A0000D4902688A4201D20C4901E00B4920310D
:1009B000D2B21423083AB2FBF3F2436C02F01F02E6
:1009C00023F003031944816404498031C164012187
:1009D0009140016570470000080402400008024091
:1009E0000179074A02EB81024265054A4432491EF9
:1009F000826501F01F0201219140C165704700002E
:100A0000FC080240704772B6FEE7000028492848FB
:100A100091ED161AD1ED151A90F8380091ED130AE0
:100A200071EE810A012821D091ED112A022822D0ED
:100A3000D1ED160AD1ED122A032872EEA01A21D0A8
:100A400091ED102A042824D0D1ED160AD1ED142AF4
:100A5000052872EEA01A21D030EE220AF0EE410AEB
:100A600030EE010AB0EE611A06F09ABA30EE210AB1
:100A700030EE010AF8E7B0EE600A72EE210A70EE7D
:100A8000810AF1E772EE220AB0EE410A70EE810AA5
:100A9000E8E7B0EE410AF0EE610A03E0B0EE610A69
:100AA000F0EE410A72EE221A31EE811ADCE7000004
:100AB000340C002070B5974C2DED088B206BFFF7A0
:100AC00091FD41EC180B606BFFF78CFD9FED921BC5
:100AD00053EC112BFFF798FC53EC182BFFF706FD96
:100AE000FFF793FD94ED039AF6EE008A08EE100AE4
:100AF00029EE28AA1AEE100AFFF774FDA56841EC4A
:100B00001B0B2846FFF76EFD9FED851B53EC112B49
:100B1000FFF77AFC53EC1B2BFFF770FCFFF775FD1A
:100B200009EE900A1AEE100AFFF75CFD41EC1A0B71
:100B30002846FFF757FD9FED7C1B53EC112BFFF769
:100B400063FC53EC1A2BFFF759FCFFF75EFD01EE37
:100B5000900AF0EE690AB0EE490AB0EE611A03F0AD
:100B6000BDFA94F83800012827D0022845D0032880
:100B700072D004286ED005286DD068EE690A28EE80
:100B8000490AC4ED130A84ED140A30EE802A94ED6C
:100B90000D1AB4EEC12AF1EE10FA09DDC1EE021A07
:100BA00060EEA10A20EE210AC4ED130A84ED140AB6
:100BB00031EE600AD4ED140A40E028EE210A68EE16
:100BC000090A84ED130AC4ED150A30EE202AD4ED8B
:100BD0000D1AB4EEE12AF1EE10FA09DD81EE821A67
:100BE00020EE010A84ED130A20EE810A84ED150A35
:100BF00094ED130A31EEC00A1EE028EE610A68EE99
:100C0000690A84ED110AC4ED150A30EE202A94ED2C
:100C10000D1AB4EEC12AF1EE10FA09DDC1EE021A86
:100C200020EE210A84ED110A20EEA10A84ED150AB6
:100C300094ED110A31EE400AD4ED150A30EE600A47
:100C400020EE280A84ED0F0A84ED160ABDEC088B0D
:100C500070BD01E01EE03FE068EE090A28EE290AB7
:100C6000C4ED110A84ED120A30EE802A94ED0D1ABB
:100C7000B4EEC12AF1EE10FA09DDC1EE021A60EEFF
:100C8000A10A20EE210AC4ED110A84ED120A31EE08
:100C9000600A1EE028EE490A68EE610A84ED100A37
:100CA000C4ED120A30EE202AD4ED0D1AB4EEE12A7A
:100CB000F1EE10FA09DD81EE821A20EE010A84EDD0
:100CC000100A20EE810A84ED120A94ED100A31EE2A
:100CD000C00AD4ED120AB1E768EE290A28EE210A0B
:100CE000C4ED100A84ED140A30EE802AD4ED0D1AFA
:100CF000B4EEE12AF1EE10FA09DD81EE821A60EE1F
:100D0000810A20EE010AC4ED100A84ED140A31EEC6
:100D1000E00A4FE7340C0020A94C58E87AB6FB3FB4
:100D2000AA4C58E87AB6EBBFAA4C58E87AB6EB3F23
:100D30002DE9F047044690F858009CB00E464FF05D
:100D40000009012815D0012084F8580000251795C6
:100D5000189520684FF0A04840450ED1284F0097C5
:100D6000384602F0DBFD8246206802F0D7FD60B114
:100D70000EE002201CB0BDE8F087E06D40F02000DE
:100D8000E06584F858500120F4E7BAF1000F09D06B
:100D9000E06D40F02000E0654FF0010984F8585004
:100DA0004846E7E71748326840F61F71002A826814
:100DB00022F4604216D094F8383042EA4332736825
:100DC0001A438260D8F80820BB6802F0010203F0E1
:100DD00001031A43E2D1B36832681A4383688B4334
:100DE0001A430BE08260D8F80820BB6802F00102C9
:100DF00003F001031A43D1D182688A438260CDE7B0
:100E000000010050000300502DE9F84F0027044670
:100E1000009790F85800DFF8D8930D46B84601289F
:100E200011D0012684F85860206802F073FD60B18B
:100E3000E06D40F02000E0655FF0010784F8588025
:100E40003846BDE8F88F0220FBE7D5E900210C23E6
:100E5000206803EA91131844036B01F01F014FF05F
:100E60001F0C0CFA01FCC2F3846223EA0C038A40D3
:100E700013430363206802F04DFD8246206802F0B0
:100E800045FD5AEA00003CD1AA6829682068B2F101
:100E9000004F37D002F046FD2068416921F0004143
:100EA000416120686969C268C2F3C1025200914081
:100EB0002A69042A31D000EB82002B68026EDFF829
:100EC00034C303F0F84302EA0C020B431A4342F026
:100ED0000041016620682A69A96900EB8200026E60
:100EE00022F080720A430266297F2268286901295C
:100EF00010D0002102EB8000026E22F000720A4343
:100F000002667DE0002202F00DFD2068416941F09B
:100F10000041C5E74FF00071ECE7002102F0F0FC62
:100F2000400320684FF0000172D002F0E9FC90FA13
:100F3000A0F0B0FA80F1286842036ED090FAA0F0D9
:100F4000B0FA80F0814204D100221146206802F0FC
:100F5000F8FC0121206802F0D3FC400320684FF028
:100F600001015DD002F0CCFC90FAA0F0B0FA80F163
:100F70002868420359D090FAA0F0B0FA80F081427C
:100F800004D100220121206802F0DBFC022120684C
:100F900002F0B6FC400320684FF0020148D002F096
:100FA000AFFC90FAA0F0B0FA80F12868420344D078
:100FB00090FAA0F0B0FA80F0814204D10022022120
:100FC000206802F0BEFC0321206802F099FC400377
:100FD00020684FF0030133D002F092FC90FAA0F0A9
:100FE000B0FA80F1286842032FD090FAA0F0B0FA4E
:100FF00080F0814204D100220321206802F0A1FC8C
:101000002068816811F0010F22D0A8E000E004E020
:1010100002F076FCC0F384618DE7C0F3846091E751
:1010200002F06EFCC0F38461A2E7C0F38460A6E71F
:1010300002F066FCC0F38461B7E7C0F38460BBE7ED
:1010400002F05EFCC0F38461CCE7C0F38460D0E7BB
:10105000EB6829684B4550F8B03FC1F3120101D14C
:101060000B4300E08B430360E868484577D128686C
:1010700041031CD090FAA0F1B1FA81F1491C01F0B2
:101080001F0109294FEA403132D8002912D000BF90
:1010900090FAA0F1B1FA81F101F1010101F01F0113
:1010A00006FA01F609D100BFC0F3846109E0C0F37C
:1010B0008461E3E7C0F38461EEE790FAA0F1B1FA4E
:1010C00081F101F1010101F01F0146EA816102D1C4
:1010D000C0F3846003E090FAA0F0B0FA80F000F171
:1010E000010000F01F0000EB400041EA005132E037
:1010F00000290ED090FAA0F1B1FA81F101F10101BD
:1011000001F01F0106FA01F606D100BFC0F38461A9
:1011100006E0C0F38461F1E790FAA0F1B1FA81F141
:1011200001F1010101F01F0146EA816102D1C0F322
:10113000846003E090FAA0F0B0FA80F000F10100C2
:1011400000F01F002C4A00EB400002EB005041EA87
:10115000000141F00071AA68206802F0E3FB274813
:101160002A6802423FF46AAE25488168254B01F0A7
:10117000E0719A4202D0244B9A421CD10B021AD43D
:101180002268B2F1A04F7FF459AE826841F40001A9
:1011900022F0E0720A4382601C481D490068B0FBDF
:1011A000F1F0401C00EB4000800000E0401E009089
:1011B0000028FBD142E6174D174BAA4207D1CD01BB
:1011C00005D422689A42F5D041F0807109E0134DB0
:1011D000AA42EFD14A02EDD422689A42EAD041F401
:1011E0008001826822F0E0720A43826026E60000F5
:1011F00000007F4000F0FF03000020FE0000088098
:1012000000030050000021C31000C0909400002093
:10121000400D0300000052C700010050000084CBC5
:10122000F8B54FF0000504002E46009502D0E06DA1
:1012300010B107E00120F8BD204600F0EFF8266667
:1012400084F8586020688168C1F3407119B18168E1
:101250006A4A1140816020688168C1F3007189B9D0
:101260008168674A114041F0805181606548664954
:101270000068B0FBF1F04000801C00E0401E0090D0
:101280000028FBD120688168C1F3007141B9E16D8C
:1012900041F01001E165216E41F001012166012557
:1012A00002F038FBE16DC90600D430B1E06D40F0CA
:1012B0001000E06501252846F8BDE06D20F480703F
:1012C00040F00200E0652068806810F0010F11D145
:1012D0004FF0A04080684D4900F00100896801F09E
:1012E0000101084306D14A486168826822F47C12F1
:1012F0000A438260E168E06B627F0843A16841EACB
:101300004231084394F8241040EA0140012904D1F5
:10131000218D404A02EB41410843E16A29B101F4C1
:101320007871226B014342EA01002168CA683A4B96
:101330001A400243CA6020680169626B21F0406173
:1013400011430161206802F0E5FA0646206802F0C8
:10135000DDFA30432ED1207F94F83810800340EA24
:1013600041022068C16844F2020399431143C160FD
:1013700020690028206801690AD041F480310161A8
:10138000206850F8C01F22696FF30D01114307E078
:1013900021F480310161206850F8C01F6FF30D0106
:1013A000016094F8400001280CD02068016921F008
:1013B00001010161606901282068016B21F00F01C2
:1013C00011D013E0D4E911010843D4E913121143F9
:1013D000084321680A6940F2FC739A43104340F0C5
:1013E00001000861E6E7226A521E11430163E06DC5
:1013F00020F0020040F00100E0655CE7C0FFFF5F05
:10140000C0FFFF7F94000020400D0300000100504A
:10141000000300500000FEFF0740F0FF70B598B0D9
:101420000546142111A8FEF73DFF44216846FEF74A
:1014300039FF2868B0F1A04F3ED14FF40040009032
:1014400080030F90684601F025F808B1FFF7DBFA3A
:101450001A49C86C40F40050C864C86C00F40050CD
:101460001690C86C40F00100C864C86C002600F0FB
:10147000010016900C2011900320CDE9120611A94D
:101480004FF0904000F0F0F80E4C0D482060052021
:10149000C4E901068020C4E9036080006061800027
:1014A000A0612020C4E90706204600F06BF808B1CF
:1014B000FFF7A9FA6C65A56218B070BD0010024074
:1014C000080002407C020020F0B4016C0C68016846
:1014D0000D6890F8442002F01F06042202FA06F379
:1014E000234211D06B070FD50B689B0603D40B6802
:1014F00023F004030B6090F8441001F01F018A40B0
:10150000016C4A60016B1DE0022303FA06F72742D3
:101510004FF0000C4FF0010218D0AF0716D50C6841
:10152000A40605D40C6824F00A040C6080F8252079
:1015300090F8441001F01F018B40016C4B6080F863
:1015400024C0C16A00291AD0F0BC08470823B34060
:10155000234214D02B0712D50B6823F00E030B6027
:1015600090F84410036C01F01F0102FA01F1596078
:10157000C26380F8252080F824C0416BE2E7F0BC0C
:101580007047000070B504000CD02B4A216814206D
:10159000914209D2294A0A44B2FBF0F0800060640B
:1015A00027480AE0012070BD234A52420A44B2FB98
:1015B000F0F080006064204808382064022084F83D
:1015C00025000A6847F6F0708243D4E90203184305
:1015D000D4E904352B431843A3691843E36918433E
:1015E000236A1843104308602046FFF7D9F9A06822
:1015F0000025B0F5804F00D16560A16C20790860AE
:10160000D4E9130141606068401E032808D82046D1
:10161000FFF7E6F9606D0560D4E91601416002E06C
:101620006565A565E565E563012084F8250084F816
:101630002450002070BD000008040240F8FFFDBFE8
:101640000000024070B5044600F03CF90546601CFD
:1016500002D004484068044400F034F9401BA04222
:10166000FAD370BD880000202DE9F04FDFF82092FA
:10167000002301260324A9F1040B85B00F2709F1EB
:10168000040AABF1040EFAE006FA03F52A407CD016
:1016900091F804C00CF0030CBCF1010F02D0BCF1B6
:1016A000020F26D1D0F808C0CDF800C04FEA430C95
:1016B00004FA0CF8CDF810C0DDF800C02CEA080CD4
:1016C000CDF800C0D1F80C80DDF810C008FA0CF895
:1016D000DDF800C048EA0C08C0F80880D0F804C063
:1016E0002CEA050C0D79C5F300159D4045EA0C0563
:1016F00045600D79ED43AD070ED0C5684FEA43084C
:1017000004FA08FC25EA0C05D1F808C00CFA08FC1C
:101710004CEA050CC0F80CC00D7905F00305022D4C
:1017200016D1DD0800EB850CCDF808C0DCF8208070
:101730005D074FEAD56C07FA0CF528EA05080D6934
:1017400005FA0CF5DDF808C045EA0805CCF820508C
:1017500005684FEA430CCDF808C004FA0CFC25EAF2
:101760000C0591F804C00CF00308DDF808C008FA75
:101770000CF848EA0508C0F800804D6815F4403FB1
:101780007CD0444DD5F860C000E077E04CF0010C0F
:10179000C5F860C02D6E23F0030C05F0010500951F
:1017A0003D4D65440295AD684FEA837C4FEA1C7855
:1017B00007FA08FC25EA0C05B0F1904F06D0DFF8D7
:1017C000DCC0604505D14FF0010C20E04FF0000C6B
:1017D0001DE0DFF8CCC0604502D14FF0020C16E0EE
:1017E000DFF8C0C0604502D14FF0030C0FE0DFF816
:1017F000B8C0604502D14FF0040C08E0DFF8ACC07F
:10180000604502D14FF0050C01E04FF0060C0CFAD8
:1018100008FC4CEA050C029DC5F808C0D9F8005038
:10182000CC46D1F8048095435FEAC82800D515431B
:10183000CCF80050DAF80050D446D1F80480954333
:101840005FEA882800D51543CCF80050DBF800503B
:10185000DC46D1F8048095435FEA883800D515430B
:10186000CCF80050DEF80050F446D1F804809543DF
:101870005FEAC83800D51543CCF800505B1C0A68F5
:1018800032FA03F57FF400AF05B0BDE8F08F000039
:10189000080401400010024000000140000400481C
:1018A00000080048000C00480010004800140048E0
:1018B0000069084000D0012070470AB1816170477B
:1018C00081627047014880687047000088000020EE
:1018D0000248816842681144816070478800002096
:1018E00010B50024032000F073F80F2000F008F872
:1018F00008B1012401E000F025F8204610BD0000E9
:1019000070B50E4E05460024706898B14FF47A7198
:10191000B1FBF0F00A490968B1FBF0F001F04CFAB4
:1019200040B9102D06D200222946501E00F030F892
:10193000356000E00124204670BD000088000020D2
:10194000940000200A4882B0016E41F00101016656
:10195000016E01F001010091816D41F080518165BE
:10196000806D00F08050009002B000F08BBD000050
:1019700000100240002809DB00F01F020121914005
:101980004009800000F1E020C0F80011704700001D
:10199000F0B40E4B1B680C46C3F30223C3F10705DA
:1019A000042D00D90425191D072901D2002300E0C8
:1019B000DB1E012606FA05F1491E214099409E4092
:1019C000761E16403143F0BC04F06CBC0CED00E018
:1019D000064900F0070208684FF6FF03184040EA86
:1019E0000220034A10430860704700000CED00E03D
:1019F0000000FA0501220168C0F8E822002280F800
:101A0000E02231F8540F40F001000880088840F0CF
:101A1000020008801046704770B50F4D044669B14A
:101A200001290AD1D4F8F00203F0DAFCA0690028F9
:101A300003D0286840F00600286070BDA06928B176
:101A400002F086FB286820F006002860D4F8F00237
:101A5000BDE8704003F05CBC10ED00E010B50C0672
:101A600007D501F0070101EB810100EBC10028302F
:101A700005E001EB810100EBC10000F5B47099B203
:101A800032B1012202730181190C4181002010BD85
:101A900000220273C180F9E701EB810200EBC20270
:101AA000D0F8F002D26B03F01CBB01EB810200EB1B
:101AB000C202D0F8F002D2F87C2103F066BB70B508
:101AC00004460B0601F0070000EB800104EBC101A6
:101AD0004FF001024FF0000503D581F8292028318D
:101AE00003E081F8695101F5B471087094F8A80217
:101AF000012808D084F8A822206803F0A1FF84F808
:101B0000A852002070BD022070BD70B5044601F0DF
:101B10000F006268904201D9012070BD0B0601F0F0
:101B2000070000EB800104EBC1014FF001024FF010
:101B3000000503D581F82920283103E081F8695197
:101B400001F5B4718D70087094F8A802012808D0CE
:101B500084F8A822206804F012F884F8A852002023
:101B600070BD022070BD2DE9F04704685FEA42486D
:101B70000B788D69B4F850804FF0000C4BF68F77DE
:101B800048F2800648F68F7948F2C00A444428D5C6
:101B900040F2024808EBC30834F80840C4F30904D3
:101BA000A54203D32D1B8D6102D00BE0C1F818C0F4
:101BB000D0F800C03CF823503D4085F40055354333
:101BC0002CF82350520609D50B78056835F82320E8
:101BD00002EA090242EA0A0225F8232074B30A89BC
:101BE00027E040F2064808EBC30834F80840C4F385
:101BF0000904A54203D32D1B8D6102D00BE0C1F86F
:101C000018C0D0F800C03CF823503D4085F4005582
:101C100035432CF82350520609D40D78036833F865
:101C2000252002EA090242EA0A0223F825202CB103
:101C30004A8949690068234604F04BFA2046BDE80A
:101C4000F0872DE9F047054600680C465FEA4268D8
:101C50001646D1F818C02278B0F8508048F68F7731
:101C60004CF280094FF400434FF6FF7A4FF0000129
:101C700040447BD540F2024808EBC20830F8080027
:101C8000C0F30900844514D9BCEB000CC4F818C09B
:101C900010D0760408D5D5F800C03CF822603E404C
:101CA00046EA09062CF8226094F82420012A50D034
:101CB0004EE1A161607810B1012813D01AE02868C4
:101CC000B0F85030184400EBC200B0F8022422F4FF
:101CD000F842A0F80224B0F8022442F40042A0F82E
:101CE000022407E02868B0F85030184400EBC20026
:101CF000A0F802146278286812B1012A11D018E005
:101D0000B0F850100844217800EBC100B0F8061478
:101D100021F4F841A0F80614B0F8061441F400418B
:101D200005E0B0F850201044227800EBC200A0F883
:101D3000061421782846FFF7AFFE7004B8D5217845
:101D40002A6832F82100384040EA090022F82100D0
:101D5000FEE0626902446261E2690244E26126696E
:101D6000226AB24203D33046111A04E038E084F804
:101D700024100AB110462162617811B1012923D0E3
:101D80002BE02968B1F850203E281144227801EB5D
:101D9000C20101F2024106D94209C60600D1521E13
:101DA00043EA82220EE030B14208C30700D0521C41
:101DB0000AEA822206E00A8822F4F8420A800A88A7
:101DC00042F400420A8008E02968B1F8502011442A
:101DD000227801EBC201A1F8020483B22289B3E0A8
:101DE00040F2064808EBC20830F80800C0F30900CA
:101DF000844514D3BCEB000CC4F818C010D0760492
:101E000008D4D5F800C03CF822603E4046EA0906F6
:101E10002CF8226094F82420012A50D098E0A16187
:101E2000607810B1012813D01AE02868B0F850305B
:101E3000184400EBC200B0F8022422F4F842A0F8E3
:101E40000224B0F8022442F40042A0F8022407E081
:101E50002868B0F85030184400EBC200A0F8021413
:101E60006278286812B1012A11D018E0B0F8501039
:101E70000844217800EBC100B0F8061421F4F841C1
:101E8000A0F80614B0F8061441F4004105E0B0F8DB
:101E900050201044227800EBC200A0F806142178EC
:101EA0002846FFF7F9FD700452D42278296831F8EA
:101EB0002200384040EA090021F8220048E0626927
:101EC00002446261E2690244E2612669226AB24226
:101ED00003D33046111A216204E00AB11046216290
:101EE00084F824106278296812B1012A22D029E0EE
:101EF000B1F850203E281144227801EBC20101F2D2
:101F0000064106D94209C60600D1521E43EA822282
:101F10000EE030B14208C30700D0521C0AEA822208
:101F200006E00A8822F4F8420A800A8842F4004255
:101F30000A8007E0B1F850201144227801EBC20179
:101F4000A1F80604628983B26169286804F0DCF8AC
:101F50002278296831F8220048F6BF73184080F0D3
:101F6000300048F28003184321F822000020BDE829
:101F7000F0872DE9F04104460F0601F0070000EB61
:101F8000800104EBC1014FF001064FF0000503D5BD
:101F900081F82960283103E081F8695101F5B471B5
:101FA00008700A61CB704A7802B1C881022B00D157
:101FB0000D7194F8A802012809D084F8A86220685D
:101FC00003F00AFC284684F8A852BDE8F0810220FC
:101FD000FBE770B50C4601F0070505EB850100EB4A
:101FE000C101C1E95F230022C1F8842181F8692180
:101FF00081F8685101F5B4716207006803F014FEBE
:10200000002070BD70B5044601F007006268904280
:1020100001D9012070BD0B064FF000054FF0010201
:1020200007D500EB800104EBC10181F8292028319C
:1020300007E001EB810104EBC10181F8695101F571
:10204000B4718A70087094F8A802012808D084F846
:10205000A822206803F0CFFD84F8A852002070BDAC
:10206000022070BD70B50C4601F0070505EB850137
:1020700000EBC101C1E90F23012281F84C208B64E0
:1020800000234B6481F8292001F8285F620700686B
:1020900003F0CAFD002070BD10B50446006804F0CE
:1020A00015F8010404D52046BDE8104001F052BEE9
:1020B00041050ED5206830F8441F21F4806101806D
:1020C000204600F013F92046BDE81040002100F042
:1020D00039B9410405D5206830F8441F21F4804106
:1020E0007DE0810405D5206830F8441F21F40051BB
:1020F00075E0C1041FD5206830F8401F21F00401AD
:102100000180206830F8401F21F00801018094F818
:10211000E002012806D1002084F8E00201462046B2
:10212000FFF77AFC204600F0F5F8206830F8441FED
:1021300021F4805153E0010512D5206830F8401F8A
:1021400041F008010180206830F8441F21F400614B
:102150000180206830F8401F41F0040101800AE04E
:10216000010629D5206830F8441F21F08001018044
:1021700094F8E00218B1204600F014F910BD206870
:1021800030F8401F41F004010180206830F8401F02
:1021900041F008010180012084F8E0022068B0F8D5
:1021A00054003C2101EA9000C4F8E4022046BDE856
:1021B00010400121FFF730BC810509D5206830F8B7
:1021C000441F21F400710180204600F0B7F810BDD3
:1021D000C005FCD5206830F8441F21F480710180CF
:1021E00010BD70B586B0040004D094F8A902002593
:1021F00018B107E0012006B070BD84F8A85220464F
:1022000000F048F8032084F8A902206803F0AFFC2E
:10221000002001260EE000EB800104EBC10181F8F3
:10222000296001F8280FC881CD700D614D61401CF7
:10223000C0B28D6161688142EDD8002011E000EBF1
:10224000800104EBC10181F8695181F8680181F8CE
:102250006B51C1F87851C1F87C51401CC0B2C1F833
:10226000805161688142EAD8142204F11001684665
:10227000FDF7FFFF94E80F0003F070FC84F8245092
:1022800084F8A962E069012802D12046FFF7B2FB79
:102290000020B0E710B592B0044644216846FEF72E
:1022A00001F81049206888421AD14014009000209B
:1022B0000D90684600F0EEF808B1FEF7A4FB0A485E
:1022C000816D41F400018165806D002200F4000001
:1022D000119011461420FFF75BFB1420FFF74AFB17
:1022E00012B010BD005C00400010024070B5044602
:1022F00080680125022801D0FEF785FB2946D4F825
:10230000F00203F01FF8D4F8F002BDE8704002F0CC
:10231000D2BF000010B50446806930B1064801689C
:1023200021F00601016001F013FFD4F8F002BDE8CE
:10233000104002F0EDBF000010ED00E0D0F8F00218
:1023400002F0F0BF10B5044690F8A80201280BD0A7
:10235000012084F8A80284F82410206803F0CDFE40
:10236000002084F8A80210BD022010BDD0F8F02291
:1023700000F52C71104602F0F1BF10B5044690F83C
:10238000A80201280CD0012084F8A802206803F0DC
:102390008EFE206803F0DBFB002084F8A80210BD4D
:1023A000022010BD10B50446D0F8F00203F018F872
:1023B000A069002804D00348016841F006010160CB
:1023C00010BD000010ED00E02B492C4B0A683221B3
:1023D0004A432B4940B1B0F5007F086829D020F46A
:1023E000C06040F480602CE00868C0F341200228FF
:1023F00004D051F8800F20F4807022E0D1F88000E2
:1024000020F48070C1F88000086820F4C06040F4B7
:1024100000700860B2FBF3F0401C00E0401E4A6907
:10242000520501D50028F9D1486940050AD5032095
:102430007047C0F34120022806D051F8800F40F4C5
:102440008070086000207047D1F8800040F48070F0
:10245000C1F88000086820F4C06040F40070086093
:10246000B2FBF3F0401C00E0401E4A695205DBD588
:102470000028F9D1D8E700009400002040420F0066
:10248000007000400248816841F4804181607047DB
:10249000007000402DE9F8430446006800269D4D79
:1024A00000035ED5A86D0027C00008D4A86D40F0D9
:1024B0008050A865A86D012700F080500090DFF8DB
:1024C0005892D9F8001041F48071C9F80010FFF754
:1024D000F9F9804606E000BFFFF7F4F9A0EB080029
:1024E00002282BD8D9F80000C005F5D5D5F8900002
:1024F00010F4407014D0216C814211D0D5F89000B6
:10250000D5F8901020F4407041F48031C5F8901057
:10251000D5F8901021F48031C5F89010C5F89000DE
:10252000C00711D0FFF7CEF9804641F2883907E0A5
:10253000FFF7C8F9A0EB0801494501D903260BE0D4
:10254000D5F890008007F3D5D5F89000216C20F4E1
:1025500040700843C5F890001FB1A86D20F080506E
:10256000A8652078C00707D0D5F88800616820F0FA
:1025700003000843C5F888002078800707D5D5F800
:102580008800A16820F00C000843C5F88800207876
:10259000400707D5D5F88800E16820F030000843EF
:1025A000C5F888002078000707D5D5F8880021698C
:1025B00020F0C0000843C5F888002078800607D5C1
:1025C000D5F88800616920F440600843C5F88800A8
:1025D0002078400607D5D5F88800A16920F440503E
:1025E0000843C5F888002078000607D5D5F888008C
:1025F000E16920F440400843C5F888002088C00500
:1026000007D5D5F88800216A20F440300843C5F882
:1026100088002088800507D5D5F88800616A20F4F5
:1026200040200843C5F88800208840050FD5D5F81C
:102630008800A16A20F440100843C5F88800A06A09
:10264000B0F5801F03D1E86840F48010E86020886E
:1026500000050FD5D5F88800E16A20F44000084352
:10266000C5F88800E06AB0F5800F03D1E86840F44F
:102670008010E8602088C0040FD5D5F88800216B51
:1026800020F040700843C5F88800206BB0F1807FCF
:1026900003D1E86840F48010E86020884FF00061C2
:1026A00080040ED5D5F88800626B20F0406010439E
:1026B000C5F88800606B884203D1E86840F4801058
:1026C000E860208840040ED5D5F88800A26B20F081
:1026D00040601043C5F88800A06B884203D1E868C9
:1026E00040F48010E860208800040FD5D5F88800F9
:1026F000E16B20F040500843C5F88800E06BB0F172
:10270000805F03D1E86840F48030E8603046BDE87F
:10271000F883000000100240007000402DE9F047EF
:102720000E4605004FF0000725D0DFF8AC81D8F841
:10273000000000F00F00B0420CD2D8F8001021F0D9
:102740000F013143C8F80010D8F8000000F00F0066
:10275000B04210D12968614CC80741F2883A5AD07A
:102760006868DFF87C91032808D0022820682DD003
:10277000400500282CDB0120BDE8F087206880019F
:10278000F9D5E06800F00302E068C0F30310401CD4
:10279000032A19D0534A00BFB2FBF0F0E268C2F33B
:1027A00006225043E268C2F34162521C5200B0FB61
:1027B000F2F0484517D9A06810F0F00F0CD0880748
:1027C00011D5A86840B10EE0474AE5E78003D0E79D
:1027D00000F0B6F8484506D9A06820F0F00040F0B7
:1027E0008000A0608027A068696820F0030008438B
:1027F000A060FFF767F8814606E000BFFFF762F8C8
:10280000A0EB090151453AD8A068696800F00C00B6
:10281000B0EB810FF2D12868810714D5400703D5AA
:10282000A06840F4E060A0602878000705D5A068A3
:1028300020F4605040F4E060A060A068A96820F037
:10284000F000084304E0802F03D1A06820F0F000DE
:10285000A060D8F80010404601F00F01B14216D92F
:10286000016821F00F0131430160FFF72BF80746A3
:1028700007E000BFFFF726F8C11B514501D903202F
:102880007AE7D8F8000000F00F00B042F2D12878C3
:10289000400705D5A068E96820F4E0600843A0601F
:1028A0002878000706D5A068296920F4605040EA1E
:1028B000C100A06000F044F8A1680C4AC1F3031104
:1028C000515C01F01F01C8400949086009480068CF
:1028D000BDE8F047FFF714B80020024000100240A6
:1028E00000B4C4040024F40000127A00407100080F
:1028F0009400002088000020054806490068896887
:10290000054AC1F30221515C01F01F01C840704724
:10291000940000200010024050710008054806494C
:1029200000688968054AC1F3C221515C01F01F01AA
:10293000C840704794000020001002405071000809
:10294000184910B58868C0F381021748012A0BD0D6
:102950008A684310C2F38102022A06D08A68C2F351
:102960008102032A03D0002010BD184610BDCA689A
:1029700002F00304CA68C2F30312521C032C02D0F3
:10298000B0FBF2F001E0B3FBF2F0CA68C968C2F331
:1029900006225043C1F34161491C4900B0FBF1F0EC
:1029A00010BD0000001002400024F4002DE9F8439F
:1029B00004007AD02078FA4DC00747D0A868E968AB
:1029C00000F00C0001F003010C2802D0082817D0F9
:1029D00001E0032914D06068B0F5803F17D0B0F54E
:1029E000A02F286817D020F480302860286820F4B1
:1029F000802028606068E0B1FEF764FF064614E0BE
:102A00002868800322D560680028D2D01EE028689C
:102A100040F48030EDE740F480202860F7E700BF05
:102A2000FEF750FF801B642870D828688003F7D514
:102A30000CE0FEF747FF064605E000BFFEF742FF49
:102A4000801B6428F0D828688003F7D4207880079A
:102A50004CD5A868E96800F00C0001F003010C28CF
:102A600002D004280DD001E002290AD0E068002835
:102A700028682BD040F480702860FEF723FF0646BC
:102A800019E02868400502D5E068002891D0686800
:102A9000217C20F0FE4040EA01606860C148006887
:102AA000FEF72EFF002800D120E076E1FEF70AFFB6
:102AB000801B0228B8D828684005F7D56868217CB3
:102AC00020F0FE4040EA016068600FE020F4807072
:102AD0002860FEF7F7FE064605E000BFFEF7F2FEAF
:102AE000801B0228A0D828684005F7D4207800076A
:102AF00029D560690028D5F8940013D040F0010072
:102B0000C5F89400FEF7DEFE064606E090E000BF42
:102B1000FEF7D8FE801B022886D8D5F894008007DF
:102B2000F6D510E020F00100C5F89400FEF7CAFECB
:102B3000064604E0FEF7C6FE801B022878D8D5F8CA
:102B400094008007F6D42078400761D5A86D002650
:102B5000C00008D4A86D40F08050A865A86D01267B
:102B600000F08050009090480168C90511D40168B8
:102B7000804641F480710160FEF7A4FE074604E040
:102B8000FEF7A0FEC01B022852D8D8F80000C005EE
:102B9000F6D5A068012815D00528D5F8900016D0E4
:102BA00020F00100C5F89000D5F8900020F0040056
:102BB000C5F89000A06841F28838B8B1FEF782FEEF
:102BC00007460EE0D5F8900040F00100F0E740F035
:102BD0000400C5F89000F5E7FEF774FEC11B4145FF
:102BE00026D8D5F890008007F6D50CE0FEF76AFEEF
:102BF000074604E0FEF766FEC11B414518D8D5F82C
:102C000090008007F6D41EB1A86D20F08050A86512
:102C10002078800629D5A0690028D5F8980013D01F
:102C200040F00100C5F89800FEF74CFE064606E0AD
:102C300077E000BFFEF746FE801B022877D8D5F864
:102C400098008007F6D510E020F00100C5F8980044
:102C5000FEF738FE064604E0FEF734FE801B02282D
:102C600065D8D5F898008007F6D4E069F0B3A96874
:102C7000C1F38101032961D00228286820F0807007
:102C800028600BD0E86820F00300E860E868474956
:102C90000840E860FEF716FE04464BE0FEF712FE21
:102CA000064604E0FEF70EFE801B02283FD8286887
:102CB0008001F7D4F4E908016FF00F0202EB011173
:102CC0000843218A5204490802EB4151A26841EAB3
:102CD00002210843217D4FF07E42490802EB416109
:102CE0000843217B40EAC160E96800E062E0304AC5
:102CF00011400843E860286840F080702860E86868
:102D000040F08070E860FEF7DDFD044605E000BF9E
:102D1000FEF7D8FD001B022809D828688001F7D5E6
:102D200048E004E0FEF7CEFD001B022802D9032094
:102D3000BDE8F88328688001F4D43BE00128F7D08F
:102D4000E868226A00F00301914226D1616A00F02E
:102D5000F0020901103991421FD1A26A00F4FE412C
:102D6000B1EB022F19D194F82C2000F07841B1EB8F
:102D7000C26F12D1218E00F4C00249084905A1F5A5
:102D80000011914209D194F8341000F0C060490854
:102D90004906A1F1007181420CD00120C8E7000072
:102DA000001002408800002000700040FFFFEEFE8F
:102DB0000C809F010020BBE710B5401EB0F1807F62
:102DC00001D3012010BD4FF0E02460610F21601796
:102DD00003F068FA0020A06107202061002010BDE8
:102DE0007047704770470000F0B590F83C20012A0A
:102DF0004AD0012280F83C20CA688B6822F44072D5
:102E00001A434B6822F480621A430B6822F4006272
:102E10001A430B6922F480521A434B6922F4005280
:102E20001A430B6B22F480421A430B8B22F470225C
:102E300042EA0342154C03680026154DA34201D017
:102E4000AB4203D1CF6922F080523A43A34201D072
:102E5000AB4214D10F8D22F4700242EA07520F6A7E
:102E600022F080723A434F6A22F000723A43A34242
:102E700001D0AB4203D1C96A22F000520A435A641E
:102E800080F83C600020F0BD0220F0BD002C014025
:102E9000003401407047704770470000F0B590F86B
:102EA0003C20012A3AD0012580F83C50022280F8CB
:102EB0003D2003685A689C68194E1A4FB34201D0EE
:102EC000BB4204D122F4700C4A6842EA0C02DFF8DB
:102ED00058C002EA0C02D1F800C04CEA020CC3F858
:102EE00004C00268B2420DD0B2F1804F0AD00F4B3D
:102EF0009A4207D00E4B9A4204D0BA4202D00D4BF0
:102F00009A4204D1896824F080031943916080F8C3
:102F10003D50002180F83C100846F0BD0220F0BD75
:102F2000002C0140003401408FFFFFFD00040040F1
:102F30000008004000400140704710B5040003D075
:102F400094F83D0010B107E0012010BD002084F886
:102F50003C00204600F022F8022084F83D00211DAC
:102F6000206801F045F9012084F8480084F83E000B
:102F700084F83F0084F8400084F8410084F842005F
:102F800084F8430084F8440084F8450084F846003F
:102F900084F8470084F83D00002010BD08B50168A2
:102FA0001448B1F1804F14D0134A914220D1816D61
:102FB00041F002018165806D002200F00200009066
:102FC00002211D20FEF7E4FC1D20BDE80840FEF7AD
:102FD000D1BC816D41F001018165806D002200F05E
:102FE0000100009002211C20FEF7D2FC1C20ECE71F
:102FF00008BD0000001002400004004090F83D10A1
:10300000012901D001207047022180F83D1001689C
:10301000CA6842F00102CA600068104988420ED0B6
:10302000B0F1804F0BD00E49884208D00D4988423C
:1030300005D00D49884202D00C49884207D18168E9
:103040000B4A1140062906D0B1F5803F03D0016834
:1030500041F001010160002070470000002C014098
:1030600000040040000800400034014000400140DE
:103070000700010070B5044690F83C0000250128C7
:1030800014D0012684F83C60022084F83D002268B8
:103090009068364B184020F47F4090600868702894
:1030A0002ED010DC10F00F0F03D021E04FF0020003
:1030B00070BD4FEA2012072A1AD2DFE802F05252FE
:1030C00052524A3840002A4BC21A984249D009DC71
:1030D000B0F5805F0DD0B0F5005F1CD0B0F1101FCF
:1030E00006D13EE0102A3CD0202A3AD0502A38D0CF
:1030F000012584F83D60002084F83C00284670BD1E
:10310000CB68D1E90121206801F0D7F820688168F7
:1031100041F0770109E0CB68D1E90121206801F095
:10312000CCF82068816841F480418160E1E7CA6899
:103130004968206801F06CFA5021206806E0CA68EE
:103140004968206801F075FA6021206801F0C0F834
:10315000CFE7CA684968206801F05AFA4021206820
:10316000F4E7226801461046F0E7000088FFCEFF32
:1031700020001000704770B50446006801694FF0E8
:103180000005C943890715D4C168C943890711D40B
:10319000E91E0161012020772068806980072046B0
:1031A00002D0FFF7E7FF04E000F00EF9204600F040
:1031B000EDF9257720680169C943490717D4C1682B
:1031C000C943490713D46FF004010161022020773D
:1031D0002068806910F4407F204602D0FFF7CAFFC4
:1031E00004E000F0F1F8204600F0D0F925772068DF
:1031F0000169C943090716D4C168C943090712D434
:103200006FF008010161042020772068C069800701
:10321000204602D0FFF7AEFF04E000F0D5F82046CC
:1032200000F0B4F9257720680169C943C90617D4AD
:10323000C168C943C90613D46FF0100101610820A9
:1032400020772068C06910F4407F204602D0FFF745
:1032500091FF04E000F0B8F8204600F097F92577D8
:1032600020680169C943C90708D1C168C943C907B2
:1032700004D1891E0161204600F008FA2068016926
:10328000C943090609D4C168C943090605D46FF0CA
:10329000800101612046FFF7A4FD20680169C94350
:1032A000C90509D4C168C943090605D46FF4807102
:1032B00001612046FFF794FD20680169C943490672
:1032C00009D4C168C943490605D46FF040010161C2
:1032D000204600F0FDF920680169C943890609D438
:1032E000C168C943890605D46FF0200101612046F9
:1032F000FFF778FD20680169C943C90209D4C16894
:10330000C943C90205D46FF4801101612046FFF75B
:10331000C2FD20680169C943890209D4C168C94353
:10332000890205D46FF4001101612046FFF7B2FD58
:1033300020680169C943490209D4C168C9434902E7
:1033400005D46FF4800101612046FFF7A5FD2068D8
:103350000169C94309020BD4C168C943090207D4F2
:103360006FF4000101612046BDE87040FFF7E4BD45
:1033700070BD000010B586B0044614216846FCF705
:1033800091FF0F492068884217D10E48C16C41F067
:103390000101C164C06C694600F0010005904FF462
:1033A000E06000900220019000200290039006202F
:1033B00004904FF09040FEF757F906B010BD0000A2
:1033C000002C014000100240704770B5044690F890
:1033D0003C0000260D4601280BD0012084F83C005B
:1033E0000C2A4AD007DC82B1042A20D0082A06D150
:1033F00031E0022070BD102A53D0142A63D0012678
:10340000002084F83C00304670BD206800F06AFF60
:103410002068816941F0080181612068816921F09B
:1034200004018161206881692A69114311E02068E3
:1034300000F0A6FF2068816941F400618161206885
:10344000816921F480618161206881692A6941EA8A
:1034500002218161D4E7206800F0DAFF2068C169A9
:1034600041F00801C1612068C16921F00401C16116
:103470002068C1692A69114311E0206801F010F841
:103480002068C16941F40061C1612068C16921F40B
:103490008061C1612068C1692A6941EA0221C16174
:1034A000AEE7206801F044F82068016D41F00801A2
:1034B00001652068016D21F0040101652068016D3E
:1034C0002A69114311E0206801F06AF82068016D53
:1034D00041F4006101652068016D21F4806101659E
:1034E0002068016D2A6941EA0221016588E710B56B
:1034F000040003D094F83D0010B107E0012010BD96
:10350000002084F83C00204600F022F8022084F8D5
:103510003D00211D206800F06BFE012084F848006A
:1035200084F83E0084F83F0084F8400084F84100AD
:1035300084F8420084F8430084F8440084F845008D
:1035400084F8460084F8470084F83D00002010BD50
:1035500008B500680B49884212D10B48016E41F44E
:1035600000610166006E002200F4006000901146C8
:103570001920FEF70DFABDE808401920FEF7FAB948
:1035800008BD0000002C0140001002407047000000
:1035900030B50446022269B1042912D0082917D097
:1035A0000C291CD0102921D094F84300012824D0E4
:1035B000012030BD94F83E000128F9D184F83E2066
:1035C0001DE094F83F000128F2D184F83F2016E076
:1035D00094F840000128EBD184F840200FE094F8E3
:1035E00041000128E4D184F8412008E094F8420029
:1035F0000128DDD184F8422001E084F84320012233
:10360000206800F04DFE194B20681949194A98426C
:1036100009D0884207D0904205D0174DA84202D069
:10362000164DA84203D1456C45F400454564206819
:1036300098420CD0B0F1804F09D0114B984206D07F
:10364000104B984203D0884201D0904207D1816844
:103650000D4A1140062906D0B1F5803F03D001681C
:1036600041F001010160002030BD0000002C01404C
:103670000034014000400140004401400048014046
:103680000004004000080040070001000E4910B58A
:10369000884217D10D4C2068012801D0012010E08C
:1036A000606820B1012806D0022807D008E0BDE8F4
:1036B000104003F051BC03F0F9FB01E003F018FCEB
:1036C0000020206010BD0000DC020020F801002076
:1036D000704790F88010012918D0012180F88010DF
:1036E0002421C0F8841050F8641B0A680B6823F08A
:1036F00001030B6022F000510022026050F8643C8C
:10370000196020210162027710467047022070473D
:1037100070B5044690F8800001281DD0012084F87F
:1037200080002420C4F8840020680568026822F024
:10373000010202602068826822F060620A438260AF
:10374000204600F089FF206805602020C4F884002E
:10375000002084F8800070BD022070BD70B5044662
:1037600090F8800001281DD0012084F880002420DA
:10377000C4F8840020680568026822F00102026033
:103780002068826822F060420A438260204600F08E
:1037900063FF206805602020C4F88400002084F8BE
:1037A000800070BD022070BD10B5040003D0D4F8B5
:1037B000840010B107E0012010BD002084F88000D3
:1037C000204600F027F82420C4F88400206801680F
:1037D00021F001010160204600F0F4FF0128EBD048
:1037E000A06A10B1204600F059FF2068416821F41A
:1037F000904141602068816821F02A018160206841
:10380000016841F0010101602046BDE8104000F070
:10381000A9BF000010B598B00446142111A8FCF708
:1038200041FD44216846FCF73DFD17492068884268
:1038300027D104200024009003946846FEF72AFE56
:1038400008B1FDF7E0F81148816D41F480218165F0
:10385000816D01F480211691C16C41F00201C164B7
:10386000C06C11A900F0020016904FF44060119056
:103870000220CDE912040720CDE914400448FDF7E9
:10388000F3FE18B010BD00000048004000100240D8
:1038900000040048FEE70000F0B500230A243025AC
:1038A00037261F4611E000BFB4EB107F02D905EBAD
:1038B000107C01E006EB107C01F813C001EB430C17
:1038C00000015B1C8CF80170DBB29342ECD3F0BDBD
:1038D0000A4890ED001AD0ED090AD0ED011A90EDDA
:1038E000080A21EE202A01EEC02A21EE000A01EE8C
:1038F000A00A80ED022A80ED030A7047340C0020F4
:1039000000EB8100006E00F0F84070478068C0F363
:10391000C00070478068C0F3800070478068C0F3C3
:1039200080007047042303EAD15310B5184443695B
:10393000C1F3045107248C40A3438A4013434361DD
:1039400010BD00EB8100016E21F0004111430166C2
:103950007047000070B58CB00024089409942021B1
:1039600068460A94FCF79EFC23484FF0A0410125CD
:1039700001604FF44031C0E9011400F11001042648
:10398000C46081E87000047744770221016280F806
:103990002440C462046380F83850C46380F8404017
:1039A000FDF73EFC08B1FDF72EF808A9124808946F
:1039B000FDF7BEF908B1FDF726F810480090062083
:1039C000CDE901057F200594CDE9030669460A4843
:1039D000FDF71AFA08B1FDF716F8094800900C2017
:1039E000019069460448FDF70FFA002801D0FDF761
:1039F0000AF80CB070BD0000100200200800900C06
:103A00001000C0100D4808B5816C41F004018164BC
:103A1000816C01F004010091816C41F0010181642D
:103A2000806C002200F00100009011460B20FDF791
:103A3000AFFFBDE808400B20FDF79CBF001002401F
:103A40002DE9F04186B014216846FCF72BFC26488E
:103A5000C16C41F02001C164C16C01F020010591ED
:103A6000C16C41F00101C164C16C01F0010105911B
:103A7000C16C41F00201C164C06C4FF0904700F08E
:103A800002000590002280213846FDF716FFDFF87E
:103A90005C804FF40056002231464046FDF70DFF92
:103AA000012230214046FDF708FF80200124002537
:103AB0008DE83100694638460394FDF7D5FD009640
:103AC000CDE90145694640460394FDF7CDFD302020
:103AD000009001AA112082E8310069464046FDF7B6
:103AE000C3FD06B0BDE8F0810010024000040048AC
:103AF00010B598B00024149415941C210DA81694A8
:103B0000FCF7D0FB34216846FCF7CCFB2C482B4952
:103B1000C0E900142021816040F64751C0E9031438
:103B20008021C0E90541FFF7E2FC08B1FCF76BFF1B
:103B30001494159414A922481694FFF7AFF908B10C
:103B4000FCF761FF6020CDE90D040F9410941194EF
:103B5000129400220DA91A481394FFF736FC08B1FD
:103B6000FCF751FF04220DA91548FFF72EFC08B100
:103B7000FCF749FF08220DA91148FFF726FC08B100
:103B8000FCF741FF00944FF40050CDE9044003944A
:103B90000003CDE9084001940294069407940A9426
:103BA0000B94694606480C94FFF71EF908B1FCF720
:103BB0002AFF0348FFF7DEFB18B010BD002C0140C0
:103BC000DC02002010B588B000241748009401944E
:103BD00002940394049405944FF080410694C0E944
:103BE000001441F68E21C0E9024180210461816107
:103BF000FFF7A3F908B1FCF706FF4FF480500090DF
:103C000069460948FFF736FA08B1FCF7FCFE049450
:103C100004A905480694FFF741F9002801D0FCF7F4
:103C2000F2FE08B010BD00002803002010B588B0D7
:103C3000002417480094019402940394049405947A
:103C400012490694C0E9001440F64751C0E9024108
:103C500004618461FFF771F908B1FCF7D4FE4FF4F9
:103C60008050009069460A48FFF704FA08B1FCF753
:103C7000CAFE049404A906480694FFF70FF9002829
:103C800001D0FCF7C0FE08B010BD000000040040E9
:103C900074030020184810B5164901604FF4E13153
:103CA0004160002181600C22C160C0E90412816181
:103CB000C161016241628162FFF776FD08B1FCF7E4
:103CC000A2FE00210C48FFF749FD08B1FCF79BFE5E
:103CD00000210948FFF71CFD08B1FCF794FE0648D7
:103CE000FFF7F7FC002803D0BDE81040FCF78BBEBF
:103CF00010BD000000480040C003002010B50022A5
:103D00000F49104801F0C8F908B1FCF77CFE0E49D4
:103D10000C4801F08DFB08B1FCF775FE0B49094812
:103D200000F0F8FF08B1FCF76EFE064801F0FAFB60
:103D3000002803D0BDE81040FCF765BE10BD0000B0
:103D400000000020640700209C0000207800002074
:103D5000FEE7FEE72DE9F84F044640F68F7A40F281
:103D6000064B48F60F784FF00009A7E1B0F8441071
:103D700011F00F0539D030F8256031047ED530F8C8
:103D8000251001EA0A0141F0800120F8251005EB19
:103D9000850004EBC00797F8740107F5B477002895
:103DA0006DD0F87802286BD03A78216831F822007B
:103DB00048F68F73184048F2C003184321F82200D8
:103DC0003978206830F821205204B0F8502002EBF6
:103DD00000037DD540F2024202EBC101595A890528
:103DE000890D009175D03A89C7E0C9062CD40188A5
:103DF00001EA080141F400410180206804F128052E
:103E0000B0F850102A78014440F2024000EBC200A2
:103E1000085AC0F309006064E16B0144E1630021CA
:103E20002046FDF739FE94F8240000289DD0A869AB
:103E300000289AD194F8240040F080012068A0F86E
:103E40004C1084F8249039E1018804F5B4750A0512
:103E50001ED5B0F850102A7801440BEBC200085A66
:103E600004F52C71C0F30903EB61EA88206802F0C5
:103E700030F92168088800EA0A0002E098E05FE073
:103E80006CE040F0800008802046FEF76FFA15E1F4
:103E90000904D8D5018801EA0A0141F080010180B6
:103EA0002068B0F850102A7801440BEBC200085A81
:103EB00083059B0DEB6110D0696971B1EA882068B8
:103EC00002F007F9E969686908440021686101E0C6
:103ED0004BE049E02046FDF7E8FD20680188090530
:103EE000B1D4B0F850100844296900F206403E29C8
:103EF00008D94A09C90600D1521E4FF4004141EACF
:103F0000822108E0A1B14A08C90700D0521C4FF62F
:103F1000FF7101EA82210180216808884BF68F72C7
:103F2000104080F4405048F2800210430880C5E001
:103F3000018821F4F8410180018841F40041EAE759
:103F40002068B0F850103B780A180BEBC301515AA7
:103F50008905890D009114D0FA880EE03246394661
:103F60002046FDF700FE00900BE00BEBC101595A13
:103F70008905890D009104D07A897969009B02F046
:103F8000A8F8F96900980844F8617969009808442C
:103F90007861B86918B139690098814204D93978D3
:103FA0002046FDF782FD03E03946206801F03CFE23
:103FB000300677D505EB850004EBC001206830F8AA
:103FC000252002EA080242F4004220F8252091F858
:103FD0002B002831022848D0C1F81890087B4A46A7
:103FE00008B3700620D5487810B1012812D03AE005
:103FF0002068B0F8502010440A7800EBC200B0F8F6
:10400000022422F4F842A0F80224B0F8022442F478
:10401000004206E02068B0F8503018440B7800EBFE
:10402000C300A0F802241EE04B78206813B1012BD6
:1040300011D018E0B0F8502010440A7800EBC2000C
:10404000B0F8062422F4F842A0F80624B0F80624BA
:1040500042F4004205E0B0F8503018440B7800EB11
:10406000C300A0F80624097820E0F00522D42068D7
:10407000B0F850200B78104440F2024202EBC30229
:10408000805A8A69C0F3090082420CD9121A8A61E7
:104090000BD04A6902444A61CA691044C861206869
:1040A00001F0C2FD0AE0C1F81890D9B22046FDF730
:1040B000F3FC03E032462046FDF7C3FD2068B0F86C
:1040C000441009043FF552AE0020BDE8F88F704758
:1040D00070470178407841EA00207047B5EEC01A79
:1040E000F1EE10FA01DD012200E00022F5EEC00A37
:1040F000F1EE10FA01DD012100E00021B5EEC00A69
:10410000F1EE10FA01DD012000E00020800000EB5C
:10411000410010440C49052809D0042809D006287C
:104120000BD002280BD003280BD0062002E0012080
:1041300000E0022081F8380070470320FAE70420ED
:10414000F8E70520F6E70000340C0020FDF7C0BBBF
:1041500010B594B038216846FCF7A4F814210EA8D5
:10416000FCF7A0F80020FEF72FF9212000904FF473
:10417000803001900120069002200324CDE907043D
:104180005521CDE909010421CDE90B010D906846C7
:10419000FEF70CFC08B172B6FEE70F20CDE90E0465
:1041A000002010901190129004210EA8FEF7B6FA8C
:1041B000002801D072B6FEE714B010BD02480168B5
:1041C00041F470010160704788ED00E00148FEF79E
:1041D000D2BF0000DC0200200148FEF7CCBF000087
:1041E000280300200148FEF7C6BF0000740300202A
:1041F0002DE9F0430268234B234D244E244C4FF00D
:104200008049984207D0484505D0A84203D0B04223
:1042100001D0A04203D122F070074A683A431D4FF3
:10422000DFF874C0DFF8748098420DD048450BD099
:10423000A84209D0B04207D0A04205D0B84203D06E
:10424000604501D0404503D122F44075CA682A4335
:104250004D6922F080022A4302608A68C2620A68BD
:104260008262984207D0A04205D0B84203D0604590
:1042700001D0404501D10969016301214161BDE8D7
:10428000F0830000002C01400004004000080040C2
:10429000003401400040014000440140004801401A
:1042A00010B501F01F030121046A99408C43046298
:1042B000016A9A401143016210BD10B5846842EA58
:1042C000032224F47F440A432243826010BD00008D
:1042D0008268034B1A400A4342F00701816070472D
:1042E0008FFFCFFF2DE9F043026A22F00102026244
:1042F000056A436882691C4C25F0020522400C685F
:1043000022F0030214438A68194E2A43174D194FAD
:10431000DFF864C0DFF86490A84207D0B04205D04F
:10432000B84203D0604501D0484506D122F00808C4
:10433000CA6842EA080222F00402A84207D0B0424A
:1043400005D0B84203D0604501D0484505D14D693C
:1043500023F440731D438B692B4343608461496898
:1043600041630262BDE8F0838FFFFEFF002C014035
:104370000034014000400140004401400048014039
:10438000F0B5026A22F010020262056A426883698F
:10439000194C1B4E23400C6823F4407343EA042459
:1043A00025F020038D6843EA0513144DA84201D07F
:1043B000B04206D1CF6823F0800343EA071323F00D
:1043C0004003A8420AD0B04208D00E4DA84205D002
:1043D0000D4DA84202D00D4DA84207D14D6922F4DF
:1043E000406242EA85028D6942EA85024260846148
:1043F000496881630362F0BDFF8FFFFE002C01401E
:1044000000340140004001400044014000480140A8
:10441000F0B5026A22F480720262056A4368C269DA
:10442000194C1B4E22400C6822F00302144325F461
:1044300000728D6842EA0522144DA84201D0B042B4
:1044400006D1CF6822F4006242EA072222F4806299
:10445000A8420AD0B04208D00E4DA84205D00E4D59
:10446000A84202D00D4DA84207D14D6923F4405314
:1044700043EA05138D6943EA05134360C461496843
:10448000C1630262F0BD00008FFFFEFF002C0140FF
:104490000034014000400140004401400048014018
:1044A000F0B5026A22F480520262056A4268C3696A
:1044B000194C1B4E23400C6823F4407343EA042438
:1044C00025F400538D6843EA0533144DA84201D00A
:1044D000B04206D1CF6823F4004343EA073323F404
:1044E0008043A8420AD0B04208D00E4DA84205D061
:1044F0000D4DA84202D00D4DA84207D14D6922F4BE
:10450000404242EA85128D6942EA85124260C461E6
:10451000496801640362F0BDFF8FFFFE002C01407B
:104520000034014000400140004401400048014087
:1045300030B5026A22F480320262046A4268036D76
:10454000114D2B400D681D4324F400330C8943EAC0
:1045500004430E4CA0420BD00D4CA04208D00D4C91
:10456000A04205D00C4CA04202D00C4CA04204D179
:104570004C6922F4803242EA0422426005654968AF
:104580008164036230BD00008FFFFEFF002C0140FC
:104590000034014000400140004401400048014017
:1045A00030B5026A22F480120262046A4268036D26
:1045B000114D24F400142B400D6843EA05230D89A6
:1045C00044EA05540D4DA8420BD00D4DA84208D029
:1045D0000C4DA84205D00C4DA84202D00B4DA8426C
:1045E00004D14D6922F4802242EA852242600365AB
:1045F0004968C164046230BDFF8FFFFE002C01409A
:1046000000340140004001400044014000480140A6
:1046100010B5036A046A24F001040462846924F07A
:10462000F00444EA021423F00A020A43846102629D
:1046300010BD10B5036A23F0100303628369046A96
:1046400023F4704343EA023224F0A00343EA011149
:104650008261016210BD000030B5416EB9B10268DF
:1046600091689268C1F342610B4B520F9C5CE5006C
:1046700003F10804A25CB5FBF2F2A0F86A205A5CD0
:10468000615CD200B2FBF1F1A0F8681030BD0121ED
:10469000A0F86A10F8E700003071000890F82810C0
:1046A000C90706D001684A68C36A22F400321A4377
:1046B0004A6090F82810890706D501684A68036B9C
:1046C00022F480321A434A6090F82810490706D530
:1046D00001684A68436B22F480221A434A6090F8CA
:1046E0002810090706D501684A68836B22F4004246
:1046F0001A434A6090F82810C90606D501688A68EE
:10470000C36B22F480521A438A6090F828108906FD
:1047100006D501688A68036C22F400521A438A6045
:1047200090F82810490611D501684A68436C22F4B4
:1047300080121A434A60416CB1F5801F06D10168AE
:104740004A68836C22F4C0021A434A6090F8281029
:10475000090606D501684A68C06C22F400220243AB
:104760004A607047F8B500260446C0F88C60FDF733
:10477000A9F80546206800686FF07E47000708D555
:104780002B4600224FF400112046009700F054F908
:1047900060B92068006840070AD52B4600224FF414
:1047A00080012046009700F047F908B10320F8BDCA
:1047B0002020C4F88400C4F8880044F86C6F0020FE
:1047C0002675F8BD2DE9F04104460168806822692C
:1047D000E3691043626900251A431043DFF82CC2D5
:1047E0000A688B4B1A4002430A6020684168E268FD
:1047F00021F44051114341602168A069614501D015
:10480000226A10438A68834B1A4002438A602068F8
:10481000C16A626A21F00F011143C1627E492368B7
:104820007E488B420DD1D0F8880010F0030006D0EE
:10483000012855D0022842D003283FD152E0012060
:104840003DE077498B420BD1D0F8880010F00C0086
:1048500035D0042833D0082840D00C282ED141E090
:1048600070498B420BD1D0F8880010F0300026D070
:10487000102835D0202831D030281FD132E06A49A5
:104880008B420BD1D0F8880010F0C00017D0402820
:1048900026D0802822D0C02810D123E063450DD136
:1048A000D0F8880010F4406009D0B0F5806F17D0C0
:1048B000B0F5006F12D0B0F5406F13D010205B49F7
:1048C0005B4F00264FF4004263453BD160B10228A4
:1048D00013D004280BD0082872D10DE00220EEE797
:1048E0000420ECE70820EAE7FEF706F801E0FEF70F
:1048F00027F8010001D17CE01146606A37F81020EA
:104900006768B1FBF2F007EB4703834270D8B0EB66
:10491000073F6DD8002308461946FBF779FC0902CA
:1049200041EA106102027808101871413A460023EA
:10493000FBF76EFC3F4AA0F54071914258D82168C0
:10494000C86056E0E3694FF6EF7893422CD109280E
:104950004ED2DFE800F00508114D0D4D4D4D100011
:10496000FDF7CAFF01E0FDF7D9FF010004D140E0E7
:10497000FDF7E6FFF9E71146606A37F81000B1FB72
:10498000F0F04100606801EB5001B1FBF0F0A0F1E4
:10499000100141452CD84FF6F0710140C0F34200A0
:1049A00001432068C16024E0092821D2DFE800F03B
:1049B000050912200E2020201100FDF79DFF02E0C6
:1049C00016E0FDF7ABFF010004D112E0FDF7B8FFE0
:1049D000F9E71146606A37F81000B1FBF0F1606842
:1049E00001EB5001B1FBF0F0A0F1100141450AD9F3
:1049F00001250120A4F86A0024F8680F2846A66063
:104A0000E660BDE8F08180B299E7000000800040D8
:104A1000F369FFCFFFF4FF1100380140001002409E
:104A20000044004000480040004C00400024F400D6
:104A300018710008FFFC0F002DE9F0479A46174651
:104A40000E4604464FF000094FF02008089D4AE04A
:104A5000681C48D0FCF736FFA0EB0A00A8422AD811
:104A60004DB32068016849073DD5C069C0430005C2
:104A700039D421684FF400600862206850E8001FB4
:104A800021F4D07140E80012002AF6D120680830E5
:104A900050E8001F21F0010140E80012002AF5D182
:104AA00044F8848FC4F80480C4F8088004F8049C97
:104AB0000320BDE8F087216851E8000F20F4D07092
:104AC00041E80002002AF6D12068083050E8001FB3
:104AD00021F0010140E80012002AF5D144F8848F4A
:104AE000C4F80480E2E72068C06936EA000004D018
:104AF0000020B842ACD00020DBE70120F9E700003D
:104B000010B50A46024903A000F096FA004810BD0D
:104B1000340A0020437573746F6D20484944204364
:104B20006F6E666967000000D0F8BC020021017654
:104B30000846704710B5D0F8BC2242B1D0F8C00288
:104B400051781278C36810469847002010BD0320A2
:104B500010BD70B50446812100F0BAFA0025258702
:104B600065870121204600F0B3FAA4F87851A4F833
:104B70007A51D4F8BC0248B1D4F8C00204F52F74BD
:104B800080688047206800F022FE2560002070BD0C
:104B900012200880004870472400002010B5D0F88B
:104BA000BC421CB16169012902D00AE0032010BD9A
:104BB000D0F8C00223786178C26818469047002078
:104BC0006061002010BD00000A210180004870478C
:104BD000AC0100204221018000487047D400002031
:104BE00042210180004870471801002042210180C5
:104BF000004870475C0100202DE9F04104461C206C
:104C000000F0E6FD05004FF0000629D00520C4F8AD
:104C1000BC526087A4F87A01082303228121204630
:104C200000F034FB082303228221204600F02EFBF3
:104C300001272787082303223946204600F026FB58
:104C4000A4F878712E76D4F8C00240688047082313
:104C50002A460121204600F025FB0020BDE8F08116
:104C60000220C4F8BC62F9E710B50A46024903A065
:104C700000F0E2F9004810BD340A00204375737457
:104C80006F6D2048494420496E74657266616365A2
:104C90000000000004200880004870472000002029
:104CA00010B50A46024903A000F0C6F9004810BD3D
:104CB000340A002053544D6963726F656C656374E8
:104CC000726F6E696373000010B50A46024903A053
:104CD00000F0B2F9004810BD340A002053544D339F
:104CE0003220437573746F6D2048756D616E206955
:104CF0006E746572666163650000000010B5D0F8DF
:104D0000BC222AB10823012100F0CCFA002010BDFA
:104D1000032010BD19B1C0F8C01200207047032055
:104D2000704710B51346D0F8BC2222B190F89C42CF
:104D3000032C02D00BE0032010BD147E0CB1012027
:104D400010BD012414760A46812100F052FB002098
:104D500010BD000010B51A2008800A480168001D27
:104D60000468001D0068081809D008220649FEF7EB
:104D700093FD0549042210312046FEF78DFD0248BF
:104D8000801E10BD9075FF1F3A000020F8B500226C
:104D9000D0F8BC321546ADF80020144633B10E7879
:104DA00016F0600625D0202E69D101E00320F8BD61
:104DB0004A78921E0A2A62D2DFE802F01008616186
:104DC000616161140C05887898605BE0012203F151
:104DD000080145E04888000AD86053E0012203F149
:104DE0000C013DE001225A61CA88194600F075F8AD
:104DF00048E04E78062E10D003DC3EB1012E3ED1A5
:104E000040E00A2E2FD00B2E39D134E090F89C22AE
:104E1000032A34D10222694622E04B882226B6EBCF
:104E2000132F12D18B8813B1012B08D017E0CA8839
:104E3000222A00D92222D0F8C0120D680FE0CA88B9
:104E40003F2A00D93F22124D09E02126B6EB132F4D
:104E500005D10F4DCA88183D092A00D909222946D3
:104E600000F055F80EE090F89C22032A07D10122A9
:104E700003F11001F4E790F89C22032A04D000F01B
:104E800021F803242046F8BD88781861FAE700006D
:104E9000B801002010B5D0F8B8220AB15268904786
:104EA000002010BD134610B50A46002100F0FAF9A3
:104EB000002010BD134610B50A46002100F099FAF3
:104EC000002010BD10B50446802100F077FA20467E
:104ED000BDE81040002100F071BA10B50323C0F8FE
:104EE0009432C0F858211346C0F85C210A460021CC
:104EF00000F0D8F9002010BD10B50521C0F89412BB
:104F000000231A46194600F0CDF9002010BD10B557
:104F10000223C0F8943282611346C2610A4600211E
:104F200000F067FA002010BD10B50421C0F89412FB
:104F300000231A46194600F05CFA002010BDF8B5AF
:104F400004460020ADF8000048880D46010A0629F5
:104F500047D006DC01290FD0022912D0032962D1E3
:104F60001DE0072946D00F295DD1D4F8B402C269EB
:104F700020E0694690473BE0D4F8B412207C0A68F0
:104F8000F7E7207C02260028D4F8B80205D0C16AD1
:104F9000684688470146467036E0816AF8E7C0B245
:104FA000062840D2DFE800F003090D111519D4F8E6
:104FB000B4024268B2B3207CDBE7D4F8B402826862
:104FC000F8E7D4F8B402C268F4E7D4F8B40202698E
:104FD000F0E7D4F8B4024269ECE7D4F8B40282698D
:104FE000E8E7207CF0B9D4F8B802416B68468847FE
:104FF000014609E0207CA8B9D4F8B802016B6846E4
:105000008847014607204870EA888AB1BDF8000049
:1050100040B1824200D90246ADF800202046FFF799
:1050200076FFF8BDFFE729462046FFF74BFFF8E77C
:105030002046FFF779FFF4E770B5002300281ED063
:105040000025044602E06D1CEDB2641C2678002E9B
:10505000F9D1022404EB450414801278CA545B1C75
:105060000322CA5400245B1C06E0CA545B1CDAB25B
:105070008C54521CD3B2401C0278002AF5D170BD6A
:1050800001004FF0000004D0012901D0022901D015
:10509000032070470120704778B10023C0F8B83270
:1050A000C0F8C032C0F8CC3209B1C0F8B412012146
:1050B00080F89C12027000F09FB80320704710B572
:1050C000D0F8C402FCF721FDBDE81040FFF7D8BFBF
:1050D00010B5D0F8C402FCF7F2FCBDE81040FFF7B1
:1050E000CFBF70B51646044621B194F89C02032840
:1050F00041D048E0D4F8941204F1140000250229AC
:1051000032D1D0E902318B4206D95A1A8260314637
:105110002046FFF7CFFE0FE0994214D14068884245
:1051200011D3D4F8981288420DD20022114620469D
:10513000FFF7C0FEC4F8985200231A4619462046CD
:1051400000F0B0F810E094F89C02032805D1D4F8E0
:10515000B802C16809B1204688478021204600F086
:105160002DF92046FFF7C8FE94F8A00201280AD1C5
:1051700084F8A05207E0D4F8B80242691AB1204678
:105180009047002800D1002070BD10B5134604469A
:1051900021B194F89C02032823D02AE0D4F8941279
:1051A00004F5AA70032924D1D0E9021291420AD948
:1051B0008A1A8260C068824200D30246194620469D
:1051C000FFF770FE15E094F89C02032805D1D4F88F
:1051D000B802016909B1204688472046FFF7A4FEBE
:1051E00007E0D4F8B80282691AB120469047002837
:1051F00000D1002010BD000010B51A490446C1F8C6
:10520000F002C0F8C4121848086008204860022064
:1052100088600861002048618861C86108620846AA
:10522000FCF7DFFF08B1FBF7EEFB0022D4F8C40265
:105230001823114604F53174FCF710FC58230022A2
:1052400080212068FCF70AFC982300228121206835
:10525000FCF704FCD823002201212068FCF7FEFBA8
:10526000002010BD70040020005C00400A0601F020
:105270007F01D0F8C40201EB810100EBC10002D52F
:1052800090F82A00704790F86A01704710B51C46E4
:105290001346D0F8C4022246FCF76BFEBDE810406E
:1052A000FFF7EEBE10B5D0F8C402FCF792FEBDE8E1
:1052B0001040FFF7E5BE70B50125044680F89C520A
:1052C0000020C4F894026060C4F8A402D4F8B802C4
:1052D000E0B1D4F8BC1221B1426812B100212046DD
:1052E00090470022402311462046FFF7CFFF40267B
:1052F000A4F864513346002280212046C4F860613E
:10530000FFF7C4FFA5840020266270BD032070BD96
:1053100090F89C12042903D190F89D1280F89C12F9
:105320000020704710B5D0F8B81221B190F89C2237
:10533000032A02D004E0032010BDC96901B18847E7
:10534000002010BD01740020704710B5D0F8C402D1
:10535000FCF7F8FFBDE81040FFF792BE70B50446B9
:1053600000F2AA20054600F04DF80120C4F894028E
:10537000B4F8B002C4F8980294F8AA0210F01F0121
:105380000AD001290ED0022912D000F08001204657
:10539000BDE8704000F012B829462046BDE87040D4
:1053A00000F0C2B829462046BDE8704000F0E6B9DA
:1053B00029462046BDE8704000F040B910B5D0F84D
:1053C000C402FCF71FFEBDE81040FFF759BE10B540
:1053D000D0F8C402FCF7D1FFBDE81040FFF750BE83
:1053E00090F89C1280F89D12042180F89C120020F5
:1053F000704710B5D0F8C402FCF734FEBDE8104089
:10540000FFF73EBE70B5054611F8010B287008780D
:1054100068704C1C2046FEF75CFE6880A41C204689
:10542000FEF757FEA880A01CFEF753FEE88070BD73
:1054300038B504460020ADF8000049B1C4F8B812F0
:10544000C96A19B168468847C4F8CC02002038BD43
:10545000032038BD02460320D2F8B832002B02D018
:105460001B681046184770472DE9F0410F462C4E37
:105470008978002504463170012906D9394620462D
:10548000FFF720FD0320BDE8F08194F89C0202287C
:105490000CD003281DD039462046FFF713FD317884
:1054A0002046FFF7F7FC03252846ECE799B3204692
:1054B0006160FFF7CFFF050004D039462046FFF7B3
:1054C00001FDF1E72046FFF72FFD032084F89C0241
:1054D000EAE74FF00208C1B1606888421BD0C1B250
:1054E0002046FFF7D7FC317820466160FFF7B2FF16
:1054F000050010D039462046FFF7E4FC217920460C
:10550000FFF7C8FC84F89C82CEE784F89C82204692
:105510006160FFF7BFFC2046FFF706FDC4E700000F
:1055200098000020FFF753BF2DE9F0410A780025CD
:1055300012F0600208D0202A01D0402A71D1D0F8A0
:10554000B8229268904731E04B78002201260A2B5E
:1055500067D2DFE803F0415E6658660805662D29CC
:10556000FFF7EDFC5FE004468888D8B9C888C8B961
:105570004888802816D200F07F0794F89C02032800
:1055800010D084F89E7239462046FFF7DEFE204692
:10559000FFF7CAFC1FB1022084F89C0243E084F8A4
:1055A0009C6240E020463CE0FFF75EFF05463AE0A3
:1055B000CB88012B35D190F89C32012B04D0022BE3
:1055C00002D0032B2DD104E08260012200F10801FA
:1055D00016E00122011D13E090F89C22012A03D05D
:1055E000022A01D0032A1CD1CA88022A19D1C66016
:1055F000D0F8A41209B10321C160022200F10C010C
:10560000FFF785FC0FE0498801290CD1C0F8A4629E
:1056100011E090F89C32012B08D0022B06D0032B0E
:1056200004D0FFF74FFC2846BDE8F08149880129E6
:10563000F9D1C0F8A422FFF777FCF4E72DE9F04197
:105640000D46044628780026097910F060000BD03A
:10565000202801D040286DD1D4F8B80229468268AC
:1056600020469047064686E06878A8B3012822D0F5
:1056700003287CD194F89C02022802D0032876D11A
:105680000BE0002973D0802971D02046FFF796FEE9
:1056900080212046FFF792FE6DE0688838B931B16D
:1056A000802904D0E88810B92046FFF787FE2046FD
:1056B000FFF73AFC5FE094F89C020228E1D003284F
:1056C00055D16888A8BB480602D02046FFF7F7FCF2
:1056D0002046FFF729FCBFE7FFE794F89C0200276C
:1056E000022802D0032842D111E009B180293ED11D
:1056F000080601F07F0000EB800004EB800101D57B
:10570000143101E001F5AA7102220F602BE00806B6
:1057100001F00F0000EB800004EB80000BD5808CC3
:1057200040B101F07F0000EB800004EB80051435F0
:105730000CE020E01BE0B0F86401C0B101F07F0094
:1057400000EB800004EB800505F5AA7541B18029C6
:1057500006D02046FFF78AFD10B10120286000E046
:105760002F60022229462046FFF7D1FB03E029469D
:105770002046FFF7A7FB3046BDE8F08170B506462E
:10578000087800240D4610F0600003D0202801D0D6
:10579000402817D196F89C02012803D0022801D096
:1057A00003280FD1287901280CD8D6F8B8028268CE
:1057B000304690470446E888204306D13046FFF73C
:1057C000B3FB02E03046FFF77DFB204670BD70471B
:1057D00000487047500400202DE9F0470C7800265F
:1057E00030F8243048F68F121340CA78002A7DD052
:1057F000012A7CD0022A02D0032A79D0012648F25D
:105800008002134320F824300D7830F8254048F604
:105810008F731C402C43144320F825400D7B48F225
:10582000C00748F6BF744CF2800C4BF68F79E5B395
:10583000CD7891F80080022DC24630F828507CD0F7
:1058400048F68F6805EA080555EA020520F82A504F
:10585000B0F8505091F80080054405EBC805B1F848
:10586000088028F00108A5F80084B0F8505091F89D
:105870000080054405EBC805B1F80A8028F001084E
:10588000A5F804844D7891F80080002D30F8285058
:105890004FEA45457ED0002D06DA30F828501D40ED
:1058A00045EA0C0520F8285000E030E091F800C0EF
:1058B00030F82C506D0605D530F82C501D403D4376
:1058C00020F82C50CB780D78012B30F8253003EAE6
:1058D000040301D083F02003134320F825300B7814
:1058E00030F8231001EA0901114302E006E00BE061
:1058F00007E020F823103046BDE8F08743F400733A
:105900007DE743F4C0637AE743F4806377E74D783B
:105910004DB3B0F8505091F800C0054405EBCC05EC
:10592000B1F806C02CF0010CA5F800C491F800C035
:1059300030F82C506D0607D500E05BE030F82C50B5
:105940001D403D4320F82C50CB78012B06D00B781E
:1059500030F82310214081F02001C5E70B7830F8A2
:1059600023102140C0E7B0F850400D78044404EB08
:10597000C504CD8825F00105A4F80454B0F85040C2
:105980000D78044404EBC5040D6904F206443E2D71
:105990000AD900E034E06F09ED0600D17F1E4FF414
:1059A000004545EA872508E0E5B16F08ED0700D01E
:1059B0007F1C4FF6FF7505EA872525800D7830F8A6
:1059C0002540640406D530F825401C4044EA0C0408
:1059D00020F825400B7830F8231001EA090181F402
:1059E000405181E7258825F4F8452580258845F430
:1059F0000045E2E71D4048F2801845EA080525E722
:105A0000002D06DA30F828501D4045EA0C0520F834
:105A1000285091F800C030F82C506D0605D530F8AC
:105A20002C501D403D4320F82C500D7830F8253087
:105A300003EA090383F44053134320F825308DE72C
:105A40002DE9F04391F80C804F780A7848F6BF7C36
:105A50004BF68F7948F2800348F2C0054CF280067D
:105A600048F68F74B8F1000F28D0002F30F822705C
:105A70004FEA474748D0002F05DA30F82270274018
:105A8000374320F822700A7830F822707F0605D557
:105A900030F8227027402F4320F822700D7830F81C
:105AA00025202240324320F825200C7830F824208D
:105AB00002EA0C021A4320F824201AE07FB130F8E1
:105AC0002260760605D530F8226026402E4320F865
:105AD00022600A7830F8221001EA0C010EE030F85A
