:020000040800F2
:10000000A8350020ED0100086F3D00083D380008CC
:100010006D3D0008D5090008CF6100080000000010
:10002000000000000000000000000000ED4000089B
:100030005D0A000800000000EB4000086541000870
:10004000070200080702000807020008070200086C
:10005000070200080702000807020008070200085C
:10006000070200080702000807020008070200084C
:10007000070200080702000807020008070200083C
:10008000070200080000000007020008070200083D
:100090006161000807020008070200080702000863
:1000A000070200080702000807020008070200080C
:1000B000E5410008F14100080702000807020008B6
:1000C00007020008070200080702000807020008EC
:1000D00007020008070200080702000807020008DC
:1000E00007020008070200080702000807020008CC
:1000F00007020008070200080702000800000000CD
:1001000000000000070200080000000007020008CD
:1001100007020008000000000702000807020008AC
:10012000070200080702000807020008070200088B
:10013000070200080000000000000000070200089D
:10014000070200080702000800000000000000008D
:10015000000000000000000000000000000000009F
:10016000000000000000000000000000070200087E
:10017000070200080000000000000000000000006E
:10018000000000000702000800000000000000005E
:10019000000000000000000000000000000000005F
:1001A000000000000000000007020008070200082D
:1001B000070200080702000807020008000000000C
:1001C000000000000702000800000000000000001E
:1001D0000702000807020008DFF80CD000F03CFB23
:1001E0000048004791750008A83500200648804760
:1001F00006480047FEE7FEE7FEE7FEE7FEE7FEE70C
:10020000FEE7FEE7FEE7FEE7D5410008D90100085A
:100210002DE9F05F0546002092469B46884606463B
:10022000814640241BE0284641464746224600F0CE
:100230002DFA53465A46C01A914110D3114618461A
:10024000224600F014FA2D1A67EB01084F462246A9
:100250000120002100F00BFA17EB00094E41201E8F
:10026000A4F10104DFDC484631462A464346BDE896
:10027000F09F40EA01039B0703D009E008C9121F61
:1002800008C0042AFAD203E011F8013B00F8013B50
:10029000521EF9D27047D2B201E000F8012B491E7C
:1002A000FBD270470022F6E710B513460A46044613
:1002B0001946FFF7F0FF204610BD2DE9FE4F80469E
:1002C00081EA0300C00F0C46009021F0004123F0AA
:1002D0000045B8EB0200A94105D2404621469046B0
:1002E0001C460B46024623F00040104347D0270D22
:1002F000C7F30A00C3F30A510290401A0190402844
:100300006BDAC3F3130040F4801B0098924620B1CF
:100310000023D2EB030A63EB0B0B01985946C0F1A3
:100320004002504600F0A3F906460D465046594695
:10033000019A00F0BBF910EB08006141002487EA44
:10034000115284EAE7731A4340D0009A62B3019ACB
:10035000012A4FEA075215DC001B61EB02014FF046
:10036000004202EA0752CDE90042001C41F580112B
:1003700032462B4600F0F2F903B0BDE8F08F40465C
:100380002146F9E7001B61EB0201001C41F58013D7
:1003900000185B412018A2F5001747EB030140EA63
:1003A000D570B6196D4111E06D084FEA360645EA81
:1003B000C0754FEA0752001B61EB0201001C41F5BA
:1003C000801149084FEA30000019514132462B464E
:1003D00003B0BDE8F04F00F0B2B900980122400030
:1003E0000023D0EB020263EBE073009821464FEA52
:1003F000E074B8EB000061EB0401E9E783F000432F
:100400005BE781F0004158E72DE9FE4F81EA0304E4
:1004100004F0004421F0004100944FF0000B23F061
:10042000004350EA01045ED052EA03045BD0C3F3F8
:100430000A54C1F30A552C44A4F2F3340194A0FBEE
:100440000254C1F3130141F48011C3F3130343F4C5
:10045000801301FB024400FB034E840A970A44EA1E
:10046000815447EA8357A4FB076802958D0A05FB70
:1004700007854FEA932C04FB0C542705029D4FEA95
:10048000065847EA1637B5EB08056EEB070C870EE2
:10049000920E47EA811742EA8312A7FB0201B6EBEC
:1004A0000B0164EB00042B0D43EA0C335E1844EBA4
:1004B0001C50DA465146E7FB0201C5F313044FEA2C
:1004C0000B3343EA14534FEA0432019C43EA060318
:1004D000A4F10C040294009CCDE900B400F03EF9B4
:1004E00003B0BDE8F08F00200146F9E72DE9F04D9B
:1004F00081EA030404F0004B21F0004514464FF05C
:10050000000A23F0004150EA050220D054EA01021B
:100510001DD0C5F30A570246C5F31303C1F31300F8
:10052000C1F30A5640F4801543F48013A7EB060884
:10053000101BD64608F2FD3873EB050002D308F114
:10054000010801E092185B41B8F1000F03DA0020C6
:100550000146BDE8F08D00204FF480110646844628
:100560000EE0171B73EB050705D3121B63EB0503A6
:1005700006434CEA010C49084FEA300092185B41EF
:1005800050EA0107EDD152EA030012D082EA0400DA
:1005900083EA0501084305D0101BAB4106D20122B6
:1005A000002306E000224FF0004302E06FF001025A
:1005B00053101AEB06004CEB085110EB0A0041EB0C
:1005C0000B01BDE8F04D00F0BAB80EB540F2334172
:1005D00002910021CDE900110A460B4600F0BEF859
:1005E00003B000BD00F0004230F000400AD0C10D61
:1005F00001F56071C0F3160042EA0151C2084007DC
:100600001143704700200146704701F0004330B4A9
:1006100021F0004150EA010206D00A0DA2F56072F5
:10062000C1F31301002A02DC30BC00207047440FE4
:1006300044EAC104C100E01830BC00EBC25000F035
:1006400047B830B50B46014600202022012409E0BE
:1006500021FA02F59D4205D303FA02F5491B04FA7B
:1006600002F52844151EA2F10102F1DC30BD202A5A
:1006700004DB203A00FA02F1002070479140C2F1F9
:10068000200320FA03F3194390407047202A04DB2B
:10069000203A21FA02F00021704721FA02F3D040FB
:1006A000C2F120029140084319467047202A06DB18
:1006B000CB17203A41FA02F043EAE07306E041FA30
:1006C00002F3D040C2F1200291400843194670471E
:1006D0000029A8BF7047401C490008BF20F0010056
:1006E000704710B4B0FA80FC00FA0CF050EA010434
:1006F00004BF10BC704749B1CCF1200421FA04F4C6
:1007000011FA0CF118BF012121430843A3EB0C019E
:10071000CB1D4FEA00614FEA102042BF002010BC01
:10072000704700EBC35010440029A4BF10BC7047B1
:10073000401C490008BF20F0010010BC704710B5F4
:10074000141E73F1000408DA401C41F100019218F4
:100750005B411A4301D120F0010010BD2DE9F04D9D
:1007600092469B4611B1B1FA81F202E0B0FA80F2F2
:1007700020329046FFF77BFF04460F4640EA0A000E
:1007800041EA0B0153465A46084313D0114653EA37
:10079000010019D0C8F140025046FFF777FF054627
:1007A0000E46504659464246FFF761FF084305D0C2
:1007B000012004E020463946BDE8F08D00200543C5
:1007C00046EAE0762C4337430A986305E40AA0EB37
:1007D00008000022FD0A44EA47540A3002D50020EE
:1007E0000146E9E7010510196941DDE908450019ED
:1007F0006941BDE8F04DA2E7C1F30A52C1F313010C
:1008000040F2FF3341F480119A4202DA002001469F
:10081000704740F233439A42A2F2334202DC524222
:10082000FFF734BFFFF723BF30B5041E71F100049A
:1008300004DB4FF00044404264EB0101141E73F1ED
:10084000000405DB1C464FF00043524263EB0403F7
:10085000994208BF904230BD064C074D06E0E06863
:1008600040F0010394E8070098471034AC42F6D3F7
:10087000FFF7B6FCB8780008D87800080EB5C10FAD
:1008800080EAE0700844CA07002140F233438DE853
:100890000E000A460B46FFF761FF03B000BD70B5BE
:1008A000C1F30A5201F000450024C1F3130140F2E4
:1008B000FF3341F480119A4201DA002070BD40F20A
:1008C00033439A42A2F2334203DC5242FFF7DEFE88
:1008D00000E090402C43F1D0404270BD70B58C18C0
:1008E00010F8015B15F0070301D110F8013B2A1144
:1008F00006D110F8012B03E010F8016B01F8016B31
:100900005B1EF9D12B0705D40023521E0DD401F82C
:10091000013BFAE710F8013BCB1A921C03E013F8F5
:10092000015B01F8015B521EF9D5A142D8D300202A
:1009300070BD000070B504460068816811F0010FB9
:100940002DD18168174A11421AD18168D5432940B7
:10095000491C816000F082FF06461BE0816811F0AF
:10096000010F03D181682940491C816000F076FFA6
:10097000801B02280ED920680068C043C00709D038
:10098000E06D40F01000E065206E40F00100206650
:10099000012070BD20680168C943C907DED100206D
:1009A00070BD00003F00008006F056FE06F0CEFD50
:1009B00001225103044800F04BFF044802F0F4FA0E
:1009C000034802F0F1FAFEE700040048500200205C
:1009D0009C020020FEE700207047002070470000C6
:1009E00010B500220449054804F013FA04490348ED
:1009F00004F006FA002010BD5C1100208C080020D5
:100A00005C0D002070B50D4604460146064804F012
:100A1000F7F9054804F0BCF9288881B2204600F0B7
:100A200007F8002070BD00008C08002000207047EF
:100A3000094A10B5D2F8BC22D2F814220AB101201A
:100A400010BD0A460146044804F0E3F9BDE8104031
:100A5000014804F048BA00008C080020704772B6C4
:100A6000FEE700002849284891ED0F1AD1ED0E1A33
:100A7000007F91ED0C0A71EE810A012822D091EDE0
:100A80000A2A022823D0D1ED0F0AD1ED0B2A032820
:100A900072EEA01A22D091ED092A042825D0D1EDBA
:100AA0000F0AD1ED0D2A052872EEA01A22D030EEE1
:100AB000220AF0EE410A30EE010A00BFB0EE611AE0
:100AC00006F0E2BD30EE210A30EE010AF8E7B0EEA2
:100AD000600A72EE210A70EE810AF1E772EE220AD4
:100AE000B0EE410A70EE810AE8E7B0EE410AF0EE9E
:100AF000610A03E0B0EE610AF0EE410A72EE221ADA
:100B000031EE811ADCE700005C15002070B5974CCF
:100B10002DED088B6069FFF765FD41EC180BA069AE
:100B2000FFF760FD9FED921B53EC112BFFF76CFC60
:100B300053EC182BFFF7DAFCFFF767FD94ED039AEF
:100B4000F6EE008A08EE100A29EE28AA1AEE100A1C
:100B5000FFF748FDA56841EC1B0B2846FFF742FD57
:100B60009FED851B53EC112BFFF74EFC53EC1B2B19
:100B7000FFF744FCFFF749FD09EE900A1AEE100A50
:100B8000FFF730FD41EC1A0B2846FFF72BFD9FEDD8
:100B90007C1B53EC112BFFF737FC53EC1A2BFFF7A0
:100BA0002DFCFFF732FD01EE900AF0EE690AB0EE7F
:100BB000490AB0EE611A03F09FFA207F012828D07D
:100BC000022846D0032873D004286FD005286ED0A1
:100BD00068EE690A28EE490AC4ED0C0A84ED0D0A94
:100BE00030EE802A94ED061AB4EEC12AF1EE10FA26
:100BF00009DDC1EE021A60EEA10A20EE210AC4ED61
:100C00000C0A84ED0D0A31EE600A00BFD4ED0D0A26
:100C100040E028EE210A68EE090A84ED0C0AC4EDD2
:100C20000E0A30EE202AD4ED061AB4EEE12AF1EED7
:100C300010FA09DD81EE821A20EE010A84ED0C0A19
:100C400020EE810A84ED0E0A94ED0C0A31EEC00A02
:100C50001EE028EE610A68EE690A84ED0A0AC4ED16
:100C60000E0A30EE202A94ED061AB4EEC12AF1EEF7
:100C700010FA09DDC1EE021A20EE210A84ED0A0AFB
:100C800020EEA10A84ED0E0A94ED0A0A31EE400A24
:100C9000D4ED0E0A30EE600A20EE280A84ED080A30
:100CA00084ED0F0ABDEC088B70BD01E01EE03FE053
:100CB00068EE090A28EE290AC4ED0A0A84ED0B0A37
:100CC00030EE802A94ED061AB4EEC12AF1EE10FA45
:100CD00009DDC1EE021A60EEA10A20EE210AC4ED80
:100CE0000A0A84ED0B0A31EE600A1EE028EE490A7A
:100CF00068EE610A84ED090AC4ED0B0A30EE202A81
:100D0000D4ED061AB4EEE12AF1EE10FA09DD81EE17
:100D1000821A20EE010A84ED090A20EE810A84ED90
:100D20000B0A94ED090A31EEC00AD4ED0B0AB1E7C3
:100D300068EE290A28EE210AC4ED090A84ED0D0A9D
:100D400030EE802AD4ED061AB4EEE12AF1EE10FA64
:100D500009DD81EE821A60EE810A20EE010AC4EDFF
:100D6000090A84ED0D0A31EEE00A4FE75C15002018
:100D7000A94C58E87AB6FB3FAA4C58E87AB6EBBFC4
:100D8000AA4C58E87AB6EB3F2DE9F047044690F8B4
:100D900058009CB00E464FF00009012815D00120E4
:100DA00084F8580000251795189520684FF0A04842
:100DB00040450ED1284F0097384602F0EBFD8246A1
:100DC000206802F0E7FD60B10EE002201CB0BDE833
:100DD000F087E06D40F02000E06584F85850012075
:100DE000F4E7BAF1000F09D0E06D40F02000E065B3
:100DF0004FF0010984F858504846E7E71748326831
:100E000040F61F71002A826822F4604216D094F8DE
:100E1000383042EA433273681A438260D8F80820B7
:100E2000BB6802F0010203F001031A43E2D1B36888
:100E300032681A4383688B431A430BE08260D8F808
:100E40000820BB6802F0010203F001031A43D1D16C
:100E500082688A438260CDE70001005000030050A1
:100E60002DE9F84F00270446009790F85800DFF866
:100E7000D8930D46B846012811D0012684F8586051
:100E8000206802F083FD60B1E06D40F02000E06575
:100E90005FF0010784F858803846BDE8F88F0220DB
:100EA000FBE7D5E900210C23206803EA91131844DD
:100EB000036B01F01F014FF01F0C0CFA01FCC2F391
:100EC000846223EA0C038A4013430363206802F020
:100ED0005DFD8246206802F055FD5AEA00003CD1D3
:100EE000AA6829682068B2F1004F37D002F056FD99
:100EF0002068416921F00041416120686969C26848
:100F0000C2F3C102520091402A69042A31D000EB99
:100F100082002B68026EDFF834C303F0F84302EA64
:100F20000C020B431A4342F00041016620682A6913
:100F3000A96900EB8200026E22F080720A43026609
:100F4000297F22682869012910D0002102EB800046
:100F5000026E22F000720A4302667DE0002202F077
:100F60001DFD2068416941F00041C5E74FF0007167
:100F7000ECE7002102F000FD400320684FF0000183
:100F800072D002F0F9FC90FAA0F0B0FA80F1286873
:100F900042036ED090FAA0F0B0FA80F0814204D102
:100FA00000221146206802F008FD0121206802F0AD
:100FB000E3FC400320684FF001015DD002F0DCFC4F
:100FC00090FAA0F0B0FA80F12868420359D090FA64
:100FD000A0F0B0FA80F0814204D100220121206803
:100FE00002F0EBFC0221206802F0C6FC40032068FE
:100FF0004FF0020148D002F0BFFC90FAA0F0B0FA26
:1010000080F12868420344D090FAA0F0B0FA80F052
:10101000814204D100220221206802F0CEFC03218B
:10102000206802F0A9FC400320684FF0030133D090
:1010300002F0A2FC90FAA0F0B0FA80F12868420316
:101040002FD090FAA0F0B0FA80F0814204D10022B3
:101050000321206802F0B1FC2068816811F0010FC3
:1010600022D0A8E000E004E002F086FCC0F3846136
:101070008DE7C0F3846091E702F07EFCC0F38461E9
:10108000A2E7C0F38460A6E702F076FCC0F38461B7
:10109000B7E7C0F38460BBE702F06EFCC0F3846185
:1010A000CCE7C0F38460D0E7EB6829684B4550F883
:1010B000B03FC1F3120101D10B4300E08B43036049
:1010C000E868484577D1286841031CD090FAA0F120
:1010D000B1FA81F1491C01F01F0109294FEA4031A1
:1010E00032D8002912D000BF90FAA0F1B1FA81F1F4
:1010F00001F1010101F01F0106FA01F609D100BF5B
:10110000C0F3846109E0C0F38461E3E7C0F3846164
:10111000EEE790FAA0F1B1FA81F101F1010101F0DD
:101120001F0146EA816102D1C0F3846003E090FAB6
:10113000A0F0B0FA80F000F1010000F01F0000EB19
:10114000400041EA005132E000290ED090FAA0F1AF
:10115000B1FA81F101F1010101F01F0106FA01F676
:1011600006D100BFC0F3846106E0C0F38461F1E7FB
:1011700090FAA0F1B1FA81F101F1010101F01F0132
:1011800046EA816102D1C0F3846003E090FAA0F0E6
:10119000B0FA80F000F1010000F01F002C4A00EBD3
:1011A000400002EB005041EA000141F00071AA68E2
:1011B000206802F0F3FB27482A6802423FF46AAE37
:1011C00025488168254B01F0E0719A4202D0244BFA
:1011D0009A421CD10B021AD42268B2F1A04F7FF4BC
:1011E00059AE826841F4000122F0E0720A43826045
:1011F0001C481D490068B0FBF1F0401C00EB4000AA
:10120000800000E0401E00900028FBD142E6174D10
:10121000174BAA4207D1CD0105D422689A42F5D0D6
:1012200041F0807109E0134DAA42EFD14A02EDD49A
:1012300022689A42EAD041F48001826822F0E0728A
:101240000A43826026E6000000007F4000F0FF03B2
:10125000000020FE0000088000030050000021C3B1
:101260001000C09074000020400D0300000052C721
:1012700000010050000084CB0068006C7047000043
:10128000F8B54FF0000504002E46009502D0E06D41
:1012900010B107E00120F8BD204600F0EFF8266607
:1012A00084F8586020688168C1F3407119B1816881
:1012B0006A4A1140816020688168C1F3007189B970
:1012C0008168674A114041F08051816065486649F4
:1012D0000068B0FBF1F04000801C00E0401E009070
:1012E0000028FBD120688168C1F3007141B9E16D2C
:1012F00041F01001E165216E41F0010121660125F7
:1013000002F044FBE16DC90600D430B1E06D40F05D
:101310001000E06501252846F8BDE06D20F48070DE
:1013200040F00200E0652068806810F0010F11D1E4
:101330004FF0A04080684D4900F00100896801F03D
:101340000101084306D14A486168826822F47C1290
:101350000A438260E168E06B627F0843A16841EA6A
:101360004231084394F8241040EA0140012904D195
:10137000218D404A02EB41410843E16A29B101F461
:101380007871226B014342EA01002168CA683A4B36
:101390001A400243CA6020680169626B21F0406113
:1013A00011430161206802F0F1FA0646206802F05C
:1013B000E9FA30432ED1207F94F83810800340EAB8
:1013C00041022068C16844F2020399431143C1609D
:1013D00020690028206801690AD041F48031016148
:1013E000206850F8C01F22696FF30D01114307E018
:1013F00021F480310161206850F8C01F6FF30D01A6
:10140000016094F8400001280CD02068016921F0A7
:1014100001010161606901282068016B21F00F0161
:1014200011D013E0D4E911010843D4E91312114398
:10143000084321680A6940F2FC739A43104340F064
:1014400001000861E6E7226A521E11430163E06D64
:1014500020F0020040F00100E0655CE7C0FFFF5FA4
:10146000C0FFFF7F74000020400D0300000100500A
:10147000000300500000FEFF0740F0FF10B598B0D9
:101480000446142111A8FEF70DFF44216846FEF71B
:1014900009FF2068B0F1A04F26D14FF40040009022
:1014A00080030F90684600F0CBFF08B1FFF7D7FA32
:1014B0000E48C16C41F40051C164C16C01F400518B
:1014C0001691C16C41F00101C164C06C11A900F01A
:1014D0000100169004201190032012900020139018
:1014E0004FF0904000F090F818B010BD001002408E
:1014F0002DE9F04104463848806800F01F05206857
:1015000002F044FA18B102210846BDE8F08194F8CF
:10151000580001280CD0012084F858002046FFF71D
:1015200009FA01004FF0000304D084F85830EBE7CB
:101530000220EAE7E06D40F60162904340F48070DB
:10154000E065264A20684FF0A046904201D1374618
:1015500000E00746874200D01DB9E76D27F48017E9
:10156000E765E76DFF0404D5276E27F006072766B9
:1015700000E023661C27076084F8583020689042FA
:1015800001D1334600E00346834215D0A5B1052DB5
:1015900012D0092D10D0E36D43F48013E36590421F
:1015A00000D13046C0688001AED5E06D20F4005017
:1015B00040F48050E065A7E7C268920105D5E26D6E
:1015C00022F4005242F48052E2658268044B1A40D1
:1015D000121D826098E700000003005000010050D7
:1015E000C0FFFF7F70B5044600F038F90546601C67
:1015F00002D004484068044400F030F9401BA04287
:10160000FAD370BD680000202DE9F04FDFF820927A
:10161000002301260324A9F1040B85B00F2709F14B
:10162000040AABF1040EFAE006FA03F52A407CD076
:1016300091F804C00CF0030CBCF1010F02D0BCF116
:10164000020F26D1D0F808C0CDF800C04FEA430CF5
:1016500004FA0CF8CDF810C0DDF800C02CEA080C34
:10166000CDF800C0D1F80C80DDF810C008FA0CF8F5
:10167000DDF800C048EA0C08C0F80880D0F804C0C3
:101680002CEA050C0D79C5F300159D4045EA0C05C3
:1016900045600D79ED43AD070ED0C5684FEA4308AC
:1016A00004FA08FC25EA0C05D1F808C00CFA08FC7D
:1016B0004CEA050CC0F80CC00D7905F00305022DAD
:1016C00016D1DD0800EB850CCDF808C0DCF82080D1
:1016D0005D074FEAD56C07FA0CF528EA05080D6995
:1016E00005FA0CF5DDF808C045EA0805CCF82050ED
:1016F00005684FEA430CCDF808C004FA0CFC25EA53
:101700000C0591F804C00CF00308DDF808C008FAD5
:101710000CF848EA0508C0F800804D6815F4403F11
:101720007CD0444DD5F860C000E077E04CF0010C6F
:10173000C5F860C02D6E23F0030C05F0010500957F
:101740003D4D65440295AD684FEA837C4FEA1C78B5
:1017500007FA08FC25EA0C05B0F1904F06D0DFF837
:10176000DCC0604505D14FF0010C20E04FF0000CCB
:101770001DE0DFF8CCC0604502D14FF0020C16E04E
:10178000DFF8C0C0604502D14FF0030C0FE0DFF876
:10179000B8C0604502D14FF0040C08E0DFF8ACC0DF
:1017A000604502D14FF0050C01E04FF0060C0CFA39
:1017B00008FC4CEA050C029DC5F808C0D9F8005099
:1017C000CC46D1F8048095435FEAC82800D515437C
:1017D000CCF80050DAF80050D446D1F80480954394
:1017E0005FEA882800D51543CCF80050DBF800509C
:1017F000DC46D1F8048095435FEA883800D515436C
:10180000CCF80050DEF80050F446D1F8048095433F
:101810005FEAC83800D51543CCF800505B1C0A6855
:1018200032FA03F57FF400AF05B0BDE8F08F000099
:10183000080401400010024000000140000400487C
:1018400000080048000C0048001000480014004840
:101850000AB1816170478162704700000148806869
:101860007047000068000020024881684268114407
:10187000816070476800002010B50024032000F04C
:1018800073F80F2000F008F808B1012401E000F01F
:1018900025F8204610BD000070B50E4E0546002408
:1018A000706898B14FF47A71B1FBF0F00A49096899
:1018B000B1FBF0F001F056FA40B9102D06D200222B
:1018C0002946501E00F030F8356000E00124204623
:1018D00070BD000068000020740000200A4882B03B
:1018E000016E41F001010166016E01F001010091FC
:1018F000816D41F080518165806D00F080500090D5
:1019000002B000F095BD000000100240002809DB85
:1019100000F01F02012191404009800000F1E02009
:10192000C0F8001170470000F0B40E4B1B680C4665
:10193000C3F30223C3F10705042D00D90425191DA3
:10194000072901D2002300E0DB1E012606FA05F17B
:10195000491E214099409E40761E16403143F0BCFE
:1019600004F064BC0CED00E0064900F007020868D2
:101970004FF6FF03184040EA0220034A1043086074
:10198000704700000CED00E00000FA05012201683C
:10199000C0F8E822002280F8E02231F8540F40F02D
:1019A00001000880088840F0020008801046704757
:1019B00070B50F4D044669B101290AD1D4F8F0027F
:1019C00003F05EFDA069002803D0286840F00600FF
:1019D000286070BDA06928B102F0C6FB286820F01D
:1019E00006002860D4F8F002BDE8704003F0E0BCC7
:1019F00010ED00E010B50C0607D501F0070101EB72
:101A0000810100EBC100283005E001EB810100EB12
:101A1000C10000F5B47099B232B1012202730181A4
:101A2000190C4181002010BD00220273C180F9E72A
:101A300001EB810200EBC202D0F8F002D26B03F09E
:101A400094BB01EB810200EBC202D0F8F002D2F8A5
:101A50007C2103F0DEBB70B504460B0601F00700E5
:101A600000EB800104EBC1014FF001024FF00005D3
:101A700003D581F82920283103E081F8695101F567
:101A8000B471087094F8A802012808D084F8A8223C
:101A9000206804F025F884F8A852002070BD0220C8
:101AA00070BD70B5044601F00F006268904201D924
:101AB000012070BD0B0601F0070000EB800104EB74
:101AC000C1014FF001024FF0000503D581F8292034
:101AD000283103E081F8695101F5B4718D70087007
:101AE00094F8A802012808D084F8A822206804F0FD
:101AF00096F884F8A852002070BD022070BD2DE930
:101B0000F04704685FEA42480B788D69B4F850806A
:101B10004FF0000C4BF68F7748F2800648F68F792D
:101B200048F2C00A444428D540F2024808EBC308F2
:101B300034F80840C4F30904A54203D32D1B8D617A
:101B400002D00BE0C1F818C0D0F800C03CF8235018
:101B50003D4085F4005535432CF82350520609D5F5
:101B60000B78056835F8232002EA090242EA0A02E6
:101B700025F8232074B30A8927E040F2064808EBD1
:101B8000C30834F80840C4F30904A54203D32D1B4D
:101B90008D6102D00BE0C1F818C0D0F800C03CF84D
:101BA00023503D4085F4005535432CF82350520610
:101BB00009D40D78036833F8252002EA090242EAC5
:101BC0000A0223F825202CB14A8949690068234676
:101BD00004F0CFFA2046BDE8F0872DE9F04705462E
:101BE00000680C465FEA42681646D1F818C02278B1
:101BF000B0F8508048F68F774CF280094FF40043DC
:101C00004FF6FF7A4FF0000140447BD540F2024886
:101C100008EBC20830F80800C0F30900844514D965
:101C2000BCEB000CC4F818C010D0760408D5D5F869
:101C300000C03CF822603E4046EA09062CF82260CB
:101C400094F82420012A50D04EE1A161607810B1AF
:101C5000012813D01AE02868B0F85030184400EB7F
:101C6000C200B0F8022422F4F842A0F80224B0F82E
:101C7000022442F40042A0F8022407E02868B0F8E9
:101C80005030184400EBC200A0F8021462782868B3
:101C900012B1012A11D018E0B0F850100844217890
:101CA00000EBC100B0F8061421F4F841A0F80614C6
:101CB000B0F8061441F4004105E0B0F8502010449B
:101CC000227800EBC200A0F8061421782846FFF71E
:101CD000AFFE7004B8D521782A6832F82100384068
:101CE00040EA090022F82100FEE0626902446261D4
:101CF000E2690244E2612669226AB24203D33046B5
:101D0000111A04E038E084F824100AB11046216268
:101D1000617811B1012923D02BE02968B1F8502056
:101D20003E281144227801EBC20101F2024106D99A
:101D30004209C60600D1521E43EA82220EE030B1AB
:101D40004208C30700D0521C0AEA822206E00A8831
:101D500022F4F8420A800A8842F400420A8008E02D
:101D60002968B1F850201144227801EBC201A1F892
:101D7000020483B22289B3E040F2064808EBC208AD
:101D800030F80800C0F30900844514D3BCEB000C04
:101D9000C4F818C010D0760408D4D5F800C03CF8B8
:101DA00022603E4046EA09062CF8226094F824207E
:101DB000012A50D098E0A161607810B1012813D0B9
:101DC0001AE02868B0F85030184400EBC200B0F8B0
:101DD000022422F4F842A0F80224B0F8022442F4CB
:101DE0000042A0F8022407E02868B0F850301844F8
:101DF00000EBC200A0F802146278286812B1012A30
:101E000011D018E0B0F850100844217800EBC10060
:101E1000B0F8061421F4F841A0F80614B0F806143E
:101E200041F4004105E0B0F850201044227800EB66
:101E3000C200A0F8061421782846FFF7F9FD7004C7
:101E400052D42278296831F82200384040EA09004B
:101E500021F8220048E0626902446261E2690244BA
:101E6000E2612669226AB24203D33046111A216226
:101E700004E00AB11046216284F8241062782968CF
:101E800012B1012A22D029E0B1F850203E28114495
:101E9000227801EBC20101F2064106D94209C606C9
:101EA00000D1521E43EA82220EE030B14208C3073D
:101EB00000D0521C0AEA822206E00A8822F4F84284
:101EC0000A800A8842F400420A8007E0B1F85020F4
:101ED0001144227801EBC201A1F80604628983B2A1
:101EE0006169286804F060F92278296831F82200D5
:101EF00048F6BF73184080F0300048F28003184362
:101F000021F822000020BDE8F08701F0070101EB75
:101F1000810100EBC100D0F8840170472DE9F04148
:101F200004460F0601F0070000EB800104EBC1013D
:101F30004FF001064FF0000503D581F829602831E4
:101F400003E081F8695101F5B47108700A61CB7042
:101F50004A7802B1C881022B00D10D7194F8A80211
:101F6000012809D084F8A862206803F085FC28467F
:101F700084F8A852BDE8F0810220FBE770B50C465A
:101F800001F0070505EB850100EBC101C1E95F2305
:101F90000022C1F8842181F8692181F8685101F596
:101FA000B4716207006803F08FFE002070BD70B549
:101FB000044601F007006268904201D9012070BD1B
:101FC0000B064FF000054FF0010207D500EB800132
:101FD00004EBC10181F82920283107E001EB8101E0
:101FE00004EBC10181F8695101F5B4718A70087080
:101FF00094F8A802012808D084F8A822206803F0E9
:102000004AFE84F8A852002070BD022070BD70B551
:102010000C4601F0070505EB850100EBC101C1E9A4
:102020000F23012281F84C208B6400234B6481F83C
:10203000292001F8285F6207006803F045FE0020B0
:1020400070BD10B50446006804F090F8010404D592
:102050002046BDE8104001F08BBE41050ED520683A
:1020600030F8441F21F480610180204600F014F90B
:102070002046BDE81040002100F03AB9410405D5E2
:10208000206830F8441F21F480417DE0810405D5AB
:10209000206830F8441F21F4005175E0C1041FD5B9
:1020A000206830F8401F21F004010180206830F8DA
:1020B000401F21F00801018094F8E002012806D1B8
:1020C000002084F8E00201462046FFF771FC20461C
:1020D00000F0F6F8206830F8441F21F4805153E0F6
:1020E000010512D5206830F8401F41F00801018039
:1020F000206830F8441F21F400610180206830F826
:10210000401F41F0040101800AE0010629D5206842
:1021100030F8441F21F08001018094F8E00218B1EA
:10212000204600F015F910BD206830F8401F41F03E
:1021300004010180206830F8401F41F0080101804F
:10214000012084F8E0022068B0F854003C2101EA44
:102150009000C4F8E4022046BDE810400121FFF7DA
:1021600027BC810509D5206830F8441F21F400718F
:102170000180204600F0B8F810BDC005FCD52068ED
:1021800030F8441F21F48071018010BD70B586B015
:10219000040004D094F8A902002518B107E001203A
:1021A00006B070BD84F8A852204600F049F803201C
:1021B00084F8A902206803F02AFD002001260EE021
:1021C00000EB800104EBC10181F8296001F8280FC0
:1021D000C881CD700D614D61401CC0B28D616168D8
:1021E0008142EDD8002011E000EB800104EBC10139
:1021F00081F8695181F8680181F86B51C1F8785113
:10220000C1F87C51401CC0B2C1F880516168814264
:10221000EAD8142204F110016846FEF72AF894E87F
:102220000F0003F0EBFC84F8245084F8A962E06905
:10223000012802D12046FFF7A9FB0020B0E70000EB
:1022400010B592B0044644216846FEF72BF81049B9
:10225000206888421AD14014009000200D906846F2
:1022600000F0EEF808B1FEF7FAFB0A48816D41F480
:1022700000018165806D002200F40000119011467C
:102280001420FFF751FB1420FFF740FB12B010BDE4
:10229000005C00400010024070B5044680680125D3
:1022A000022801D0FEF7DBFB2946D4F8F00203F048
:1022B00099F8D4F8F002BDE8704003F04CB8000083
:1022C00010B50446806930B10648016821F0060166
:1022D000016001F049FFD4F8F002BDE8104003F0BE
:1022E00067B8000010ED00E0D0F8F00203F06AB823
:1022F00010B5044690F8A80201280BD0012084F8FC
:10230000A80284F82410206803F047FF002084F816
:10231000A80210BD022010BDD0F8F02200F52C71EB
:10232000104603F06BB810B5044690F8A8020128D7
:102330000CD0012084F8A802206803F008FF206870
:1023400003F055FC002084F8A80210BD022010BD47
:1023500010B50446D0F8F00203F092F8A069002806
:1023600004D00348016841F00601016010BD00007F
:1023700010ED00E02B492C4B0A6832214A432B49CF
:1023800040B1B0F5007F086829D020F4C06040F467
:1023900080602CE00868C0F34120022804D051F886
:1023A000800F20F4807022E0D1F8800020F480704B
:1023B000C1F88000086820F4C06040F40070086034
:1023C000B2FBF3F0401C00E0401E4A69520501D503
:1023D0000028F9D1486940050AD503207047C0F3A9
:1023E0004120022806D051F8800F40F48070086028
:1023F00000207047D1F8800040F48070C1F8800060
:10240000086820F4C06040F400700860B2FBF3F08C
:10241000401C00E0401E4A695205DBD50028F9D176
:10242000D8E700007400002040420F000070004018
:102430000248816841F4804181607047007000402B
:102440002DE9F8430446006800269D4D00035ED543
:10245000A86D0027C00008D4A86D40F08050A86582
:10246000A86D012700F080500090DFF85892D9F84D
:10247000001041F48071C9F80010FFF7EFF98046B1
:1024800006E000BFFFF7EAF9A0EB080002282BD80E
:10249000D9F80000C005F5D5D5F8900010F44070CB
:1024A00014D0216C814211D0D5F89000D5F890104D
:1024B00020F4407041F48031C5F89010D5F89010A8
:1024C00021F48031C5F89010C5F89000C00711D0F4
:1024D000FFF7C4F9804641F2883907E0FFF7BEF9FB
:1024E000A0EB0801494501D903260BE0D5F890007F
:1024F0008007F3D5D5F89000216C20F44070084394
:10250000C5F890001FB1A86D20F08050A865207814
:10251000C00707D0D5F88800616820F003000843A1
:10252000C5F888002078800707D5D5F88800A1680D
:1025300020F00C000843C5F888002078400707D534
:10254000D5F88800E16820F030000843C5F888001D
:102550002078000707D5D5F88800216920F0C00051
:102560000843C5F888002078800607D5D5F888008C
:10257000616920F440600843C5F88800207840066F
:1025800007D5D5F88800A16920F440500843C5F864
:1025900088002078000607D5D5F88800E16920F486
:1025A00040400843C5F888002088C00507D5D5F805
:1025B0008800216A20F440300843C5F8880020884C
:1025C000800507D5D5F88800616A20F440200843CB
:1025D000C5F88800208840050FD5D5F88800A16A85
:1025E00020F440100843C5F88800A06AB0F5801FA9
:1025F00003D1E86840F48010E860208800050FD51A
:10260000D5F88800E16A20F440000843C5F8880046
:10261000E06AB0F5800F03D1E86840F48010E8600C
:102620002088C0040FD5D5F88800216B20F04070B9
:102630000843C5F88800206BB0F1807F03D1E868BB
:1026400040F48010E86020884FF0006180040ED5CF
:10265000D5F88800626B20F040601043C5F8880010
:10266000606B884203D1E86840F48010E8602088FD
:1026700040040ED5D5F88800A26B20F040601043CE
:10268000C5F88800A06B884203D1E86840F4801048
:10269000E860208800040FD5D5F88800E16B20F0B1
:1026A00040500843C5F88800E06BB0F1805F03D16B
:1026B000E86840F48030E8603046BDE8F883000008
:1026C00000100240007000402DE9F0470E46050062
:1026D0004FF0000725D0DFF8AC81D8F8000000F0FB
:1026E0000F00B0420CD2D8F8001021F00F01314396
:1026F000C8F80010D8F8000000F00F00B04210D168
:102700002968614CC80741F2883A5AD06868DFF8F6
:102710007C91032808D0022820682DD0400500288D
:102720002CDB0120BDE8F08720688001F9D5E06846
:1027300000F00302E068C0F30310401C032A19D024
:10274000534A00BFB2FBF0F0E268C2F306225043E6
:10275000E268C2F34162521C5200B0FBF2F04845FD
:1027600017D9A06810F0F00F0CD0880711D5A86811
:1027700040B10EE0474AE5E78003D0E700F0B6F845
:10278000484506D9A06820F0F00040F08000A06025
:102790008027A068696820F003000843A060FFF765
:1027A0005DF8814606E000BFFFF758F8A0EB09018D
:1027B00051453AD8A068696800F00C00B0EB810F71
:1027C000F2D12868810714D5400703D5A06840F4EA
:1027D000E060A0602878000705D5A06820F460506C
:1027E00040F4E060A060A068A96820F0F000084311
:1027F00004E0802F03D1A06820F0F000A060D8F89A
:102800000010404601F00F01B14216D9016821F0D5
:102810000F0131430160FFF721F8074607E000BFD1
:10282000FFF71CF8C11B514501D903207AE7D8F8FE
:10283000000000F00F00B042F2D12878400705D523
:10284000A068E96820F4E0600843A06028780007E9
:1028500006D5A068296920F4605040EAC100A06054
:1028600000F044F8A1680C4AC1F30311515C01F077
:102870001F01C8400949086009480068BDE8F047E1
:10288000FFF70AB8002002400010024000B4C40460
:102890000024F40000127A007C7700087400002005
:1028A000680000200548064900688968054AC1F3A8
:1028B0000221515C01F01F01C840704774000020E4
:1028C000001002408C7700080548064900688968B6
:1028D000054AC1F3C221515C01F01F01C840704795
:1028E00074000020001002408C770008184910B5D1
:1028F0008868C0F381021748012A0BD08A68431008
:10290000C2F38102022A06D08A68C2F38102032A36
:1029100003D0002010BD184610BDCA6802F00304A1
:10292000CA68C2F30312521C032C02D0B0FBF2F0AF
:1029300001E0B3FBF2F0CA68C968C2F30622504353
:10294000C1F34161491C4900B0FBF1F010BD00002A
:10295000001002400024F4002DE9F84304007AD06E
:102960002078FA4DC00747D0A868E96800F00C004D
:1029700001F003010C2802D0082817D001E0032938
:1029800014D06068B0F5803F17D0B0F5A02F28684C
:1029900017D020F480302860286820F48020286038
:1029A0006068E0B1FEF75AFF064614E0286880032D
:1029B00022D560680028D2D01EE0286840F480301C
:1029C000EDE740F480202860F7E700BFFEF746FF00
:1029D000801B642870D828688003F7D50CE0FEF7C8
:1029E0003DFF064605E000BFFEF738FF801B642868
:1029F000F0D828688003F7D4207880074CD5A868E1
:102A0000E96800F00C0001F003010C2802D0042852
:102A10000DD001E002290AD0E068002828682BD0F8
:102A200040F480702860FEF719FF064619E0286818
:102A3000400502D5E068002891D06868217C20F02C
:102A4000FE4040EA01606860C1480068FEF724FF6C
:102A5000002800D120E076E1FEF700FF801B02286D
:102A6000B8D828684005F7D56868217C20F0FE407A
:102A700040EA016068600FE020F480702860FEF793
:102A8000EDFE064605E000BFFEF7E8FE801B0228CB
:102A9000A0D828684005F7D42078000729D56069B8
:102AA0000028D5F8940013D040F00100C5F8940038
:102AB000FEF7D4FE064606E090E000BFFEF7CEFE2D
:102AC000801B022886D8D5F894008007F6D510E040
:102AD00020F00100C5F89400FEF7C0FE064604E0B1
:102AE000FEF7BCFE801B022878D8D5F8940080073A
:102AF000F6D42078400761D5A86D0026C00008D420
:102B0000A86D40F08050A865A86D012600F08050A7
:102B1000009090480168C90511D40168804641F4CD
:102B200080710160FEF79AFE074604E0FEF796FE0C
:102B3000C01B022852D8D8F80000C005F6D5A068FE
:102B4000012815D00528D5F8900016D020F00100F6
:102B5000C5F89000D5F8900020F00400C5F890006A
:102B6000A06841F28838B8B1FEF778FE07460EE05B
:102B7000D5F8900040F00100F0E740F00400C5F8FF
:102B80009000F5E7FEF76AFEC11B414526D8D5F84F
:102B900090008007F6D50CE0FEF760FE074604E0E3
:102BA000FEF75CFEC11B414518D8D5F890008007A0
:102BB000F6D41EB1A86D20F08050A865207880065C
:102BC00029D5A0690028D5F8980013D040F001005D
:102BD000C5F89800FEF742FE064606E077E000BF23
:102BE000FEF73CFE801B022877D8D5F898008007B6
:102BF000F6D510E020F00100C5F89800FEF72EFE93
:102C0000064604E0FEF72AFE801B022865D8D5F8A8
:102C100098008007F6D4E069F0B3A968C1F3810198
:102C2000032961D00228286820F0807028600BD02A
:102C3000E86820F00300E860E86847490840E86079
:102C4000FEF70CFE04464BE0FEF708FE064604E0E5
:102C5000FEF704FE801B02283FD828688001F7D4C5
:102C6000F4E908016FF00F0202EB01110843218A19
:102C70005204490802EB4151A26841EA022108438B
:102C8000217D4FF07E42490802EB41610843217BE0
:102C900040EAC160E96800E062E0304A1140084360
:102CA000E860286840F080702860E86840F0807034
:102CB000E860FEF7D3FD044605E000BFFEF7CEFD59
:102CC000001B022809D828688001F7D548E004E0F5
:102CD000FEF7C4FD001B022802D90320BDE8F883DB
:102CE00028688001F4D43BE00128F7D0E868226A24
:102CF00000F00301914226D1616A00F0F00209015F
:102D0000103991421FD1A26A00F4FE41B1EB022FAB
:102D100019D194F82C2000F07841B1EBC26F12D198
:102D2000218E00F4C00249084905A1F50011914225
:102D300009D194F8341000F0C06049084906A1F1A7
:102D4000007181420CD00120C8E700000010024051
:102D50006800002000700040FFFFEEFE0C809F0125
:102D60000020BBE710B5401EB0F1807F01D30120E9
:102D700010BD4FF0E02460610F21601703F056FA98
:102D80000020A06107202061002010BD704770471F
:102D900070470000F0B590F83C20012A4AD001228B
:102DA00080F83C20CA688B6822F440721A434B6852
:102DB00022F480621A430B6822F400621A430B6902
:102DC00022F480521A434B6922F400521A430B6BCF
:102DD00022F480421A430B8B22F4702242EA03420F
:102DE000154C03680026154DA34201D0AB4203D118
:102DF000CF6922F080523A43A34201D0AB4214D1B2
:102E00000F8D22F4700242EA07520F6A22F080729C
:102E10003A434F6A22F000723A43A34201D0AB42D8
:102E200003D1C96A22F000520A435A6480F83C6018
:102E30000020F0BD0220F0BD002C01400034014014
:102E40007047704770470000F0B590F83C20012AA9
:102E50003AD0012580F83C50022280F83D200368DA
:102E60005A689C68194E1A4FB34201D0BB4204D134
:102E700022F4700C4A6842EA0C02DFF858C002EAF9
:102E80000C02D1F800C04CEA020CC3F804C002687E
:102E9000B2420DD0B2F1804F0AD00F4B9A4207D008
:102EA0000E4B9A4204D0BA4202D00D4B9A4204D142
:102EB000896824F080031943916080F83D50002117
:102EC00080F83C100846F0BD0220F0BD002C014007
:102ED000003401408FFFFFFD000400400008004067
:102EE00000400140704710B5040003D094F83D0045
:102EF00010B107E0012010BD002084F83C002046FE
:102F000000F022F8022084F83D00211D206801F025
:102F100075F9012084F8480084F83E0084F83F00E9
:102F200084F8400084F8410084F8420084F84300AB
:102F300084F8440084F8450084F8460084F847008B
:102F400084F83D00002010BD08B501681448B1F1B7
:102F5000804F14D0134A914220D1816D41F002017B
:102F60008165806D002200F00200009011461D2056
:102F7000FEF7DAFC1D20BDE80840FEF7C7BC816DF6
:102F800041F001018165806D002200F00100009098
:102F900011461C20FEF7C8FC1C20ECE708BD000011
:102FA000001002400004004090F83D10012901D0BB
:102FB00001207047022180F83D100168CA6842F084
:102FC0000102CA600068104988420ED0B0F1804FFB
:102FD0000BD00E49884208D00D49884205D00D49D2
:102FE000884202D00C49884207D181680B4A1140BF
:102FF000062906D0B1F5803F03D0016841F00101F8
:103000000160002070470000002C014000040040D7
:10301000000800400034014000400140070001006A
:1030200070B5044690F83C000025012814D0012614
:1030300084F83C60022084F83D0022689068364B9A
:10304000184020F47F409060086870282ED010DC73
:1030500010F00F0F03D021E04FF0020070BD4FEAD7
:103060002012072A1AD2DFE802F0525252524A388E
:1030700040002A4BC21A984249D009DCB0F5805F63
:103080000DD0B0F5005F1CD0B0F1101F06D13EE0AE
:10309000102A3CD0202A3AD0502A38D0012584F872
:1030A0003D60002084F83C00284670BDCB68D1E923
:1030B0000121206801F007F92068816841F077015B
:1030C00009E0CB68D1E90121206801F0FCF8206813
:1030D000816841F480418160E1E7CA6849682068FD
:1030E00001F09CFA5021206806E0CA68496820680F
:1030F00001F0A5FA6021206801F0F0F8CFE7CA6876
:103100004968206801F08AFA40212068F4E72268C3
:1031100001461046F0E7000088FFCEFF20001000B7
:10312000704770B50446006801694FF00005C94357
:10313000890715D4C168C943890711D4E91E016103
:1031400001202077206880698007204602D0FFF7A1
:10315000E7FF04E000F00EF9204600F0E3F92577E0
:1031600020680169C943490717D4C168C9434907A1
:1031700013D46FF004010161022020772068806978
:1031800010F4407F204602D0FFF7CAFF04E000F0B1
:10319000F1F8204600F0C6F9257720680169C94397
:1031A000090716D4C168C943090712D46FF0080192
:1031B0000161042020772068C0698007204602D082
:1031C000FFF7AEFF04E000F0D5F8204600F0AAF9C2
:1031D000257720680169C943C90617D4C168C94366
:1031E000C90613D46FF01001016108202077206810
:1031F000C06910F4407F204602D0FFF791FF04E041
:1032000000F0B8F8204600F08DF9257720680169B4
:10321000C943C90708D1C168C943C90704D1891E78
:103220000161204600F0FEF920680169C9430906E2
:1032300009D4C168C943090605D46FF08001016152
:103240002046FFF7A4FD20680169C943C90509D4D8
:10325000C168C943090605D46FF480710161204635
:10326000FFF794FD20680169C943490609D4C16884
:10327000C943490605D46FF040010161204600F0C2
:10328000FBF920680169C943890609D4C168C943AB
:10329000890605D46FF0200101612046FFF778FD13
:1032A00020680169C943C90209D4C168C943C90278
:1032B00005D46FF4801101612046FFF7C2FD20683C
:1032C0000169C943890209D4C168C943890205D487
:1032D0006FF4001101612046FFF7B2FD206801691B
:1032E000C943490209D4C168C943490205D46FF4EE
:1032F000800101612046FFF7A5FD20680169C943EF
:1033000009020BD4C168C943090207D46FF4000154
:1033100001612046BDE87040FFF7E4BD70BD0000CC
:1033200010B586B0044614216846FCF7BBFF0F4970
:103330002068884217D10E48C16C41F00101C16478
:10334000C06C694600F0010005904FF4E060009009
:1033500002200190002002900390062004904FF07C
:103360009040FEF751F906B010BD0000002C01405E
:1033700000100240704770B5044690F83C000026EB
:103380000D4601280BD0012084F83C000C2A4AD0BD
:1033900007DC82B1042A20D0082A06D131E00220BD
:1033A00070BD102A53D0142A63D00126002084F85F
:1033B0003C00304670BD206800F09AFF20688169AB
:1033C00041F0080181612068816921F00401816177
:1033D000206881692A69114311E0206800F0D6FF56
:1033E0002068816941F4006181612068816921F46C
:1033F00080618161206881692A6941EA02218161D5
:10340000D4E7206801F00AF82068C16941F008019A
:10341000C1612068C16921F00401C1612068C169EE
:103420002A69114311E0206801F040F82068C16961
:1034300041F40061C1612068C16921F48061C1610A
:103440002068C1692A6941EA0221C161AEE72068AA
:1034500001F074F82068016D41F0080101652068F1
:10346000016D21F0040101652068016D2A69114395
:1034700011E0206801F09AF82068016D41F40061C4
:1034800001652068016D21F4806101652068016D8E
:103490002A6941EA0221016588E710B5040003D0DA
:1034A00094F83D0010B107E0012010BD002084F821
:1034B0003C00204600F022F8022084F83D00211D47
:1034C000206800F09BFE012084F8480084F83E004C
:1034D00084F83F0084F8400084F8410084F84200FA
:1034E00084F8430084F8440084F8450084F84600DA
:1034F00084F8470084F83D00002010BD08B500683E
:103500000649884208D10648016E41F4006101660F
:10351000006E00F40060009008BD0000002C014027
:10352000001002407047000030B50446022269B125
:10353000042912D0082917D00C291CD0102921D019
:1035400094F84300012824D0012030BD94F83E00B7
:103550000128F9D184F83E201DE094F83F000128AD
:10356000F2D184F83F2016E094F840000128EBD116
:1035700084F840200FE094F841000128E4D184F859
:10358000412008E094F842000128DDD184F842206F
:1035900001E084F843200122206800F087FE194BE7
:1035A00020681949194A984209D0884207D09042A8
:1035B00005D0174DA84202D0164DA84203D1456C44
:1035C00045F400454564206898420CD0B0F1804F26
:1035D00009D0114B984206D0104B984203D0884234
:1035E00001D0904207D181680D4A1140062906D0CA
:1035F000B1F5803F03D0016841F001010160002076
:1036000030BD0000002C014000340140004001406A
:103610000044014000480140000400400008004010
:103620000700010070B504460D4884420ED103F036
:10363000F1FF0C48FDF720FE0B4D80B2288003F00F
:103640005DFF0146686009A004F072F809488442F1
:1036500004D1BDE870400348FDF74ABF70BD0000CB
:1036600050020020980100208C01002025642C0AC3
:10367000000000009C020020704790F88010012993
:1036800018D0012180F880102421C0F8841050F84F
:10369000641B0A680B6823F001030B6022F00051E1
:1036A0000022026050F8643C196020210162027718
:1036B000104670470220704770B5044690F88000AD
:1036C00001281DD0012084F880002420C4F8840043
:1036D00020680568026822F00102026020688268A2
:1036E00022F060620A438260204600F0BBFF20683F
:1036F00005602020C4F88400002084F8800070BD9C
:10370000022070BD70B5044690F8800001281DD0DD
:10371000012084F880002420C4F884002068056813
:10372000026822F0010202602068826822F0604292
:103730000A438260204600F095FF20680560202043
:10374000C4F88400002084F8800070BD022070BDA1
:1037500010B5040003D0D4F8840010B107E00120B4
:1037600010BD002084F88000204600F027F82420B7
:10377000C4F884002068016821F00101016020463E
:1037800001F026F80128EBD0A06A10B1204600F025
:103790008BFF2068416821F4904141602068816876
:1037A00021F02A0181602068016841F00101016077
:1037B0002046BDE8104000F0DBBF000010B598B017
:1037C0000446142111A8FCF76DFD44216846FCF75E
:1037D00069FD17492068884227D104200024009001
:1037E00003946846FEF72CFE08B1FDF738F911483E
:1037F000816D41F480218165816D01F480211691F4
:10380000C16C41F00201C164C06C11A900F002005A
:1038100016904FF4406011900220CDE91204072069
:10382000CDE914400448FDF7EFFE18B010BD0000CC
:10383000004800400010024000040048FEE700007D
:10384000F0B500230A24302537261F4611E000BFBB
:10385000B4EB107F02D905EB107C01E006EB107C85
:1038600001F813C001EB430C00015B1C8CF80170E4
:10387000DBB29342ECD3F0BD10B52DED088BB0EE6A
:10388000408A18EE100AFCF7ADFE9FED389B53EC12
:10389000192BFCF7B9FD41EC100B02F03DFD354C46
:1038A000B0EE40AAF0EE60AA6068FCF79BFE53EC15
:1038B0001A2BFCF7A9FD41EC1A0B18EE100AFCF7C5
:1038C00091FE53EC192BFCF79FFD41EC100B02F01D
:1038D000BFFCB0EE40BAF0EE60BA2068FCF782FEA2
:1038E00053EC1B2BFCF790FD53EC1A2BFCF786FDD9
:1038F000FCF78BFEA06018EE100AFCF773FE53EC89
:10390000192BFCF781FD41EC100B02F0A1FCB0EE8D
:1039100040AAF0EE60AA6068FCF764FE53EC1A2B34
:10392000FCF772FD41EC1A0B18EE100AFCF75AFE78
:1039300053EC192BFCF768FD41EC100B02F0ECFC8A
:10394000B0EE408AF0EE608A2068FCF74BFE53EC44
:10395000182BFCF759FD53EC1A2BFCF7AEFCFCF7C7
:1039600054FEE060BDEC088B10BD00001320359DB7
:1039700046DF913F5C15002000EB8100006E00F0F7
:10398000F84070478068C0F3C00070478068C0F39B
:10399000800070478068C0F380007047042303EA0A
:1039A000D15310B518444369C1F3045107248C4026
:1039B000A3438A401343436110BD00EB8100016EB5
:1039C00021F00041114301667047000030B58BB013
:1039D000002408940994202168460A94FCF762FCAC
:1039E0001C484FF0A041042501604FF44031C0E96C
:1039F0000114C4600461C0E90545047744770121DE
:103A0000016280F82440C462046380F83840C463D3
:103A100080F84040FDF734FC08B1FDF720F808A914
:103A20000C480894FDF7B0F908B1FDF718F80A48FA
:103A300000900620CDE901047F200594CDE903051F
:103A400069460448FDF70CFA002801D0FDF707F895
:103A50000BB030BD980100200800900C2DE9F0411A
:103A600086B014216846FCF71DFC2648C16C41F065
:103A70002001C164C16C01F020010591C16C41F0CD
:103A80000101C164C16C01F001010591C16C41F0FB
:103A90000201C164C06C4FF0904700F00200059035
:103AA000002280213846FDF7D3FEDFF85C804FF41A
:103AB0000056002231464046FDF7CAFE0122302161
:103AC0004046FDF7C5FE8020012400258DE8310029
:103AD000694638460394FDF797FD0096CDE9014508
:103AE000694640460394FDF78FFD3020009001AAFF
:103AF000112082E8310069464046FDF785FD06B099
:103B0000BDE8F081001002400004004810B598B0F4
:103B10000024149415941C210DA81694FCF7C2FBE4
:103B200034216846FCF7BEFB2C482B49C0E9001441
:103B30002021816040F64751C0E903148021C0E98B
:103B40000541FFF7AAFC08B1FCF789FF149415940E
:103B500014A922481694FFF777F908B1FCF77FFF04
:103B60006020CDE90D040F9410941194129400225A
:103B70000DA91A481394FFF7FEFB08B1FCF76FFF7D
:103B800004220DA91548FFF7F6FB08B1FCF767FF03
:103B900008220DA91148FFF7EEFB08B1FCF75FFF03
:103BA00000944FF40050CDE9044003940003CDE9A4
:103BB000084001940294069407940A940B94694671
:103BC00006480C94FFF7E6F808B1FCF748FF0348F5
:103BD000FFF7A6FB18B010BD002C01400402002026
:103BE00010B588B0002417480094019402940394FF
:103BF000049405944FF080410694C0E9001441F606
:103C00008E21C0E90241802104618161FFF76BF9D7
:103C100008B1FCF724FF4FF4805000906946094832
:103C2000FFF7FEF908B1FCF71AFF049404A9054850
:103C30000694FFF709F9002801D0FCF710FF08B03F
:103C400010BD00005002002010B588B000241748B5
:103C500000940194029403940494059412490694E8
:103C6000C0E9001440F64751C0E902410461846193
:103C7000FFF739F908B1FCF7F2FE4FF480500090DD
:103C800069460A48FFF7CCF908B1FCF7E8FE04944E
:103C900004A906480694FFF7D7F8002801D0FCF7DE
:103CA000DEFE08B010BD0000000400409C020020B1
:103CB000184810B5164901604FF4E1314160002108
:103CC00081600C22C160C0E904128161C16101629E
:103CD00041628162FFF73CFD08B1FCF7C0FE0021A4
:103CE0000C48FFF70FFD08B1FCF7B9FE00210948A9
:103CF000FFF7E2FC08B1FCF7B2FE0648FFF7BDFC97
:103D0000002803D0BDE81040FCF7A9BE10BD00009C
:103D100000480040E802002010B500220F4910487A
:103D200001F0FEF908B1FCF79AFE0E490C4801F0CB
:103D3000CFFB08B1FCF793FE0B49094801F03CF8B2
:103D400008B1FCF78CFE064801F03CFC002803D0CB
:103D5000BDE81040FCF783BE10BD0000000000204D
:103D60008C0800205401002054000020FEE7FEE7EC
:103D70002DE9F84F044640F68F7A40F2064B48F69C
:103D80000F784FF00009A7E1B0F8441011F00F05CB
:103D900039D030F8256031047ED530F8251001EA9D
:103DA0000A0141F0800120F8251005EB850004EBA5
:103DB000C00797F8740107F5B47700286DD0F8783C
:103DC00002286BD03A78216831F8220048F68F73C8
:103DD000184048F2C003184321F8220039782068BF
:103DE00030F821205204B0F8502002EB00037DD5BA
:103DF00040F2024202EBC101595A8905890D009136
:103E000075D03A89C7E0C9062CD4018801EA0801B7
:103E100041F400410180206804F12805B0F85010F9
:103E20002A78014440F2024000EBC200085AC0F375
:103E300009006064E16B0144E16300212046FDF765
:103E4000F7FD94F8240000289DD0A86900289AD195
:103E500094F8240040F080012068A0F84C1084F809
:103E6000249039E1018804F5B4750A051ED5B0F82F
:103E700050102A7801440BEBC200085A04F52C714B
:103E8000C0F30903EB61EA88206802F072F9216847
:103E9000088800EA0A0002E098E05FE06CE040F089
:103EA000800008802046FEF737FA15E10904D8D5CE
:103EB000018801EA0A0141F0800101802068B0F820
:103EC00050102A7801440BEBC200085A83059B0D61
:103ED000EB6110D0696971B1EA88206802F049F994
:103EE000E969686908440021686101E04BE049E044
:103EF0002046FDF7A6FD206801880905B1D4B0F879
:103F000050100844296900F206403E2908D94A09A0
:103F1000C90600D1521E4FF4004141EA822108E057
:103F2000A1B14A08C90700D0521C4FF6FF7101EA3F
:103F300082210180216808884BF68F72104080F43E
:103F4000405048F2800210430880C5E0018821F407
:103F5000F8410180018841F40041EAE72068B0F8A7
:103F600050103B780A180BEBC301515A8905890D93
:103F7000009114D0FA880EE0324639462046FDF70B
:103F8000BEFD00900BE00BEBC101595A8905890D6C
:103F9000009104D07A897969009B02F0EAF8F96906
:103FA00000980844F8617969009808447861B86914
:103FB00018B139690098814204D939782046FDF753
:103FC00040FD03E03946206801F07EFE300677D5DB
:103FD00005EB850004EBC001206830F8252002EADB
:103FE000080242F4004220F8252091F82B002831E5
:103FF000022848D0C1F81890087B4A4608B37006DA
:1040000020D5487810B1012812D03AE02068B0F8E5
:10401000502010440A7800EBC200B0F8022422F4C9
:10402000F842A0F80224B0F8022442F4004206E06C
:104030002068B0F8503018440B7800EBC300A0F8AB
:1040400002241EE04B78206813B1012B11D018E038
:10405000B0F8502010440A7800EBC200B0F80624F3
:1040600022F4F842A0F80624B0F8062442F40042F4
:1040700005E0B0F8503018440B7800EBC300A0F80E
:104080000624097820E0F00522D42068B0F85020FA
:104090000B78104440F2024202EBC302805A8A6954
:1040A000C0F3090082420CD9121A8A610BD04A6906
:1040B00002444A61CA691044C861206801F004FEE4
:1040C0000AE0C1F81890D9B22046FDF7B1FC03E030
:1040D00032462046FDF781FD2068B0F844100904FF
:1040E0003FF552AE0020BDE8F88F70477047017869
:1040F000407841EA00207047B5EEC01AF1EE10FAA0
:1041000001DD012200E00022F5EEC00AF1EE10FA16
:1041100001DD012100E00021B5EEC00AF1EE10FA48
:1041200001DD012000E00020800000EB4100104490
:104130000B49052809D0042809D006280AD00228EE
:104140000AD003280AD0062002E0012000E0022065
:10415000087770470320FBE70420F9E70520F7E71D
:104160005C150020FDF780BB10B594B0382168467F
:10417000FCF798F814210EA8FCF794F80020FEF73D
:10418000F9F8212000904FF4803001900120069032
:1041900002200324CDE907045521CDE909010421BA
:1041A000CDE90B010D906846FEF7D6FB08B172B65B
:1041B000FEE70F20CDE90E04002010901190129020
:1041C00004210EA8FEF780FA002801D072B6FEE79F
:1041D00014B010BD0248016841F4700101607047DD
:1041E00088ED00E00148FEF79CBF0000500200206F
:1041F0000148FEF796BF00009C0200202DE9F04325
:104200000268234B234D244E244C4FF080499842A2
:1042100007D0484505D0A84203D0B04201D0A04203
:1042200003D122F070074A683A431D4FDFF874C08B
:10423000DFF8748098420DD048450BD0A84209D0D1
:10424000B04207D0A04205D0B84203D0604501D0AB
:10425000404503D122F44075CA682A434D6922F0D3
:1042600080022A4302608A68C2620A6882629842B7
:1042700007D0A04205D0B84203D0604501D04045E8
:1042800001D10969016301214161BDE8F0830000AA
:10429000002C0140000400400008004000340140B0
:1042A00000400140004401400048014010B501F0C9
:1042B0001F030121046A99408C430462016A9A40F9
:1042C0001143016210BD10B5846842EA032224F450
:1042D0007F440A432243826010BD00008268034B82
:1042E0001A400A4342F00701816070478FFFCFFFF9
:1042F0002DE9F043026A22F001020262056A436876
:1043000082691C4C25F0020522400C6822F0030251
:1043100014438A68194E2A43174D194FDFF864C0B9
:10432000DFF86490A84207D0B04205D0B84203D06D
:10433000604501D0484506D122F00808CA6842EA23
:10434000080222F00402A84207D0B04205D0B842C9
:1043500003D0604501D0484505D14D6923F4407331
:104360001D438B692B43436084614968416302624A
:10437000BDE8F0838FFFFEFF002C014000340140B8
:10438000004001400044014000480140F0B5026A8D
:1043900022F010020262056A42688369194C1B4EC2
:1043A00023400C6823F4407343EA042425F02003DF
:1043B0008D6843EA0513144DA84201D0B04206D1DE
:1043C000CF6823F0800343EA071323F04003A84299
:1043D0000AD0B04208D00E4DA84205D00D4DA842DB
:1043E00002D00D4DA84207D14D6922F4406242EA45
:1043F00085028D6942EA8502426084614968816371
:104400000362F0BDFF8FFFFE002C0140003401402D
:10441000004001400044014000480140F0B5026AFC
:1044200022F480720262056A4368C269194C1B4E0D
:1044300022400C6822F00302144325F400728D68B8
:1044400042EA0522144DA84201D0B04206D1CF68FD
:1044500022F4006242EA072222F48062A8420AD0D3
:10446000B04208D00E4DA84205D00E4DA84202D051
:104470000D4DA84207D14D6923F4405343EA05137B
:104480008D6943EA05134360C4614968C1630262F0
:10449000F0BD00008FFFFEFF002C01400034014002
:1044A000004001400044014000480140F0B5026A6C
:1044B00022F480520262056A4268C369194C1B4E9D
:1044C00023400C6823F4407343EA042425F400538A
:1044D0008D6843EA0533144DA84201D0B04206D19D
:1044E000CF6823F4004343EA073323F48043A84210
:1044F0000AD0B04208D00E4DA84205D00D4DA842BA
:1045000002D00D4DA84207D14D6922F4404242EA43
:1045100085128D6942EA85124260C461496801646E
:104520000362F0BDFF8FFFFE002C0140003401400C
:1045300000400140004401400048014030B5026A9B
:1045400022F480320262046A4268036D114D2B40EE
:104550000D681D4324F400330C8943EA04430E4CD8
:10456000A0420BD00D4CA04208D00D4CA04205D06B
:104570000C4CA04202D00C4CA04204D14C6922F455
:10458000803242EA04224260056549688164036220
:1045900030BD00008FFFFEFF002C014000340140C1
:1045A00000400140004401400048014030B5026A2B
:1045B00022F480120262046A4268036D114D24F4F1
:1045C00000142B400D6843EA05230D8944EA055485
:1045D0000D4DA8420BD00D4DA84208D00C4DA8425D
:1045E00005D00C4DA84202D00B4DA84204D14D6914
:1045F00022F4802242EA8522426003654968C16450
:10460000046230BDFF8FFFFE002C014000340140EA
:1046100000400140004401400048014010B5036AD9
:10462000046A24F001040462846924F0F00444EA7A
:10463000021423F00A020A438461026210BD10B51D
:10464000036A23F0100303628369046A23F470434E
:1046500043EA023224F0A00343EA011182610162BD
:1046600010BD000030B5416EB9B102689168926822
:10467000C1F342610B4B520F9C5CE50003F108044F
:10468000A25CB5FBF2F2A0F86A205A5C615CD20031
:10469000B2FBF1F1A0F8681030BD0121A0F86A105A
:1046A000F8E700006C77000890F82810C90706D0DA
:1046B00001684A68C36A22F400321A434A6090F8DB
:1046C0002810890706D501684A68036B22F48032F6
:1046D0001A434A6090F82810490706D501684A68CD
:1046E000436B22F480221A434A6090F8281009078D
:1046F00006D501684A68836B22F400421A434A6077
:1047000090F82810C90606D501688A68C36B22F4A0
:1047100080521A438A6090F82810890606D50168ED
:104720008A68036C22F400521A438A6090F82810B9
:10473000490611D501684A68436C22F480121A4375
:104740004A60416CB1F5801F06D101684A68836CEC
:1047500022F4C0021A434A6090F82810090606D5D0
:1047600001684A68C06C22F4002202434A60704724
:10477000F8B500260446C0F88C60FDF76FF80546D2
:10478000206800686FF07E47000708D52B4600229E
:104790004FF400112046009700F054F960B92068EA
:1047A000006840070AD52B4600224FF480012046BE
:1047B000009700F047F908B10320F8BD2020C4F8A5
:1047C0008400C4F8880044F86C6F00202675F8BD9A
:1047D0002DE9F0410446016880682269E3691043CD
:1047E000626900251A431043DFF82CC20A688B4B1C
:1047F0001A4002430A6020684168E26821F440518F
:10480000114341602168A069614501D0226A1043CB
:104810008A68834B1A4002438A602068C16A626AD0
:1048200021F00F011143C1627E4923687E488B420B
:104830000DD1D0F8880010F0030006D0012855D023
:10484000022842D003283FD152E001203DE07749C1
:104850008B420BD1D0F8880010F00C0035D0042822
:1048600033D0082840D00C282ED141E070498B422B
:104870000BD1D0F8880010F0300026D0102835D0A9
:10488000202831D030281FD132E06A498B420BD129
:10489000D0F8880010F0C00017D0402826D080281B
:1048A00022D0C02810D123E063450DD1D0F8880074
:1048B00010F4406009D0B0F5806F17D0B0F5006FEC
:1048C00012D0B0F5406F13D010205B495B4F00262B
:1048D0004FF4004263453BD160B1022813D0042855
:1048E0000BD0082872D10DE00220EEE70420ECE79F
:1048F0000820EAE7FDF7D6FF01E0FDF7F7FF01002A
:1049000001D17CE01146606A37F810206768B1FB7E
:10491000F2F007EB4703834270D8B0EB073F6DD846
:10492000002308461946FBF773FC090241EA1061AF
:1049300002027808101871413A460023FBF768FC20
:104940003F4AA0F54071914258D82168C86056E0AE
:10495000E3694FF6EF7893422CD109284ED2DFE875
:1049600000F00508114D0D4D4D4D1000FDF79AFF5B
:1049700001E0FDF7A9FF010004D140E0FDF7B6FF1B
:10498000F9E71146606A37F81000B1FBF0F041001A
:10499000606801EB5001B1FBF0F0A0F1100141455E
:1049A0002CD84FF6F0710140C0F34200014320685B
:1049B000C16024E0092821D2DFE800F005091220B7
:1049C0000E2020201100FDF76DFF02E016E0FDF73C
:1049D0007BFF010004D112E0FDF788FFF9E71146E3
:1049E000606A37F81000B1FBF0F1606801EB50012C
:1049F000B1FBF0F0A0F1100141450AD901250120D9
:104A0000A4F86A0024F8680F2846A660E660BDE8AE
:104A1000F08180B299E7000000800040F369FFCF89
:104A2000FFF4FF1100380140001002400044004034
:104A300000480040004C00400024F4005477000877
:104A4000FFFC0F002DE9F0479A4617460E46044634
:104A50004FF000094FF02008089D4AE0681C48D03C
:104A6000FCF7FCFEA0EB0A00A8422AD84DB3206850
:104A7000016849073DD5C069C043000539D42168A4
:104A80004FF400600862206850E8001F21F4D071E4
:104A900040E80012002AF6D12068083050E8001FD4
:104AA00021F0010140E80012002AF5D144F8848F7A
:104AB000C4F80480C4F8088004F8049C0320BDE80E
:104AC000F087216851E8000F20F4D07041E800021F
:104AD000002AF6D12068083050E8001F21F00101BB
:104AE00040E80012002AF5D144F8848FC4F804800D
:104AF000E2E72068C06936EA000004D00020B8422E
:104B0000ACD00020DBE70120F9E7000010B50A4631
:104B1000024903A000F0D4FA004810BD5C0B00204D
:104B200043444320436F6E66696700002DE9F041FE
:104B30000C46D0F8C422D0F8BC12E9B104EB8406CC
:104B400000EB86050027AB693BB102EBC602926B16
:104B5000B3FBF2F602FB163282B1C1F81472D0F840
:104B6000C00203692BB1D1F80802224601F5047195
:104B700098470020BDE8F0810320FBE700231A4698
:104B80002146AF6100F085FCF3E770B5D0F8BC4278
:104B900005466CB100F073FBC4F80C02D5F8C012E6
:104BA000D4F80402CA6804F503719047002070BD70
:104BB000032070BD70B50446812100F0CDFA0025B8
:104BC00025870121204600F0C7FAA4F878518221F8
:104BD000204600F0C1FAA4F84C50A4F84E50D4F886
:104BE000BC0248B1D4F8C00204F52F744068804775
:104BF000206800F03CFE2560002070BD1220088077
:104C0000004870472400002010B5D0F8BC4284B1A1
:104C1000D0F8C01259B194F80002FF2807D08B6871
:104C200094F8012221469847FF2084F800020020D2
:104C300010BD032010BD00000A210180004870470C
:104C40007C0000204321018000487047CC000020F8
:104C500043210180004870478800002043210180E3
:104C600000487047100100202DE9F04704464FF43A
:104C7000077000F0FDFD05004FF0000735D0C4F8C7
:104C8000BC52207C4FF010084FF40079012680B30D
:104C9000402302228121204600F048FB2687402342
:104CA00002220121204600F041FBA4F87861A4F81B
:104CB0004E80082303228221204600F037FBA4F80F
:104CC0004C60D4F8C00200688047C5F81472C5F87B
:104CD0001872207CD5F80422A8B140230121204677
:104CE00000F030FB0020BDE8F0870220C4F8BC7261
:104CF000F9E7FFE74B4602228121204600F016FB30
:104D000026874B46CCE74B46E8E7000010B50A463D
:104D1000024903A000F0D4F9004810BD5C0B00204C
:104D200043444320496E7465726661636500000008
:104D300004200880004870472000002010B50A4673
:104D4000024903A000F0BCF9004810BD5C0B002034
:104D500053544D6963726F656C656374726F6E69ED
:104D60006373000010B50A46024903A000F0A8F9D9
:104D7000004810BD5C0B002053544D33322056695F
:104D8000727475616C20436F6D506F727400000017
:104D900010B5D0F8BC1251B1027C002AD1F804221F
:104DA00007D04023012100F0CDFA002010BD0320E0
:104DB00010BD4FF40073F5E719B1C0F8C012002020
:104DC000704703207047000010B51A2008800A4879
:104DD0000168001D0468001D0068081809D0082239
:104DE0000649FEF72DFD0549042210312046FEF745
:104DF00027FD0248801E10BD9075FF1F3A0000205D
:104E0000D0F8BC0218B1C0F804120020704703208B
:104E10007047D0F8BC0228B1C0F81022C0F80812C0
:104E200000207047032070472DE9FC410646D0F86A
:104E3000BC7200200C468DF80000ADF80400054659
:104E400037B1207810F0600128D0202944D102E049
:104E50000320BDE8FC81E288C2B1000660780AD573
:104E6000D6F8C0128B6839469847E288072A00D9DD
:104E70000722394628E087F80002A07987F8010266
:104E8000E2883946304600F06CF82AE0D6F8C012C5
:104E9000607800228B682146984722E0607830B124
:104EA00001281ED00A2809D00B2815D110E096F849
:104EB0009C02032810D1022201A905E096F89C0269
:104EC000032809D101226946304600F064F808E061
:104ED00096F89C02032804D02146304600F036F8AC
:104EE00003252846B5E710B5D0F8BC12012219B148
:104EF000D1F8143213B10FE0032010BD0122C1F824
:104F00001422D1F81022C262D1F81032D1F808224E
:104F1000812100F0BEFA0022104610BD10B5D0F875
:104F2000B8220AB152689047002010BD134610B550
:104F30000A46002100F006FA002010BD134610B505
:104F40000A46002100F0A5FA002010BD10B5044665
:104F5000802100F083FA2046BDE81040002100F0D7
:104F60007DBA10B50323C0F89432C0F85821134617
:104F7000C0F85C210A46002100F0E4F9002010BDD1
:104F800010B50521C0F8941200231A46194600F006
:104F9000D9F9002010BD10B50223C0F89432826107
:104FA0001346C2610A46002100F073FA002010BDCA
:104FB00010B50421C0F8941200231A46194600F0D7
:104FC00068FA002010BDF8B504460020ADF80000D6
:104FD00048880D46010A062947D006DC01290FD072
:104FE000022912D0032962D11DE0072946D00F29DA
:104FF0005DD1D4F8B402C26920E0694690473BE035
:10500000D4F8B412207C0A68F7E7207C0226002836
:10501000D4F8B80205D0C16A684688470146467090
:1050200036E0816AF8E7C0B2062840D2DFE800F037
:1050300003090D111519D4F8B4024268B2B3207CEB
:10504000DBE7D4F8B4028268F8E7D4F8B402C268A7
:10505000F4E7D4F8B4020269F0E7D4F8B402426984
:10506000ECE7D4F8B4028269E8E7207CF0B9D4F820
:10507000B802416B68468847014609E0207CA8B920
:10508000D4F8B802016B684688470146072048708B
:10509000EA888AB1BDF8000040B1824200D90246D8
:1050A000ADF800202046FFF776FFF8BDFFE7294660
:1050B0002046FFF74BFFF8E72046FFF779FFF4E7BC
:1050C00070B5002300281ED00025044602E06D1CA8
:1050D000EDB2641C2678002EF9D1022404EB4504BD
:1050E00014801278CA545B1C0322CA5400245B1C2F
:1050F00006E0CA545B1CDAB28C54521CD3B2401C7A
:105100000278002AF5D170BD01004FF0000004D0F4
:10511000012901D0022901D00320704701207047E6
:1051200078B10023C0F8B832C0F8C032C0F8CC3231
:1051300009B1C0F8B412012180F89C12027000F08D
:10514000A3B80320704710B5D0F8C402FCF7A9FC3F
:10515000BDE81040FFF7D8BF10B5D0F8C402FCF787
:105160007AFCBDE81040FFF7CFBF70B51646044685
:1051700021B194F89C02032841D048E0D4F894125D
:1051800004F114000025022932D1D0E902318B420A
:1051900006D95A1A826031462046FFF7CFFE0FE04B
:1051A000994214D14068884211D3D4F898128842A9
:1051B0000DD2002211462046FFF7C0FEC4F89852D7
:1051C00000231A461946204600F0BCF810E094F877
:1051D0009C02032805D1D4F8B802C16809B1204661
:1051E00088478021204600F039F92046FFF7C8FEA5
:1051F00094F8A00201280AD184F8A05207E0D4F85C
:10520000B80242691AB120469047002800D1002018
:1052100070BD10B51346044621B194F89C020328D2
:1052200023D02AE0D4F8941204F5AA70032924D1DB
:10523000D0E9021291420AD98A1A8260C068824279
:1052400000D3024619462046FFF770FE15E094F899
:105250009C02032805D1D4F8B802016909B120469F
:1052600088472046FFF7A4FE07E0D4F8B802826919
:105270001AB120469047002800D1002010BDD0F878
:10528000C402FCF742BE000010B51E490446C1F836
:10529000F002C0F8C4121C480860082048600220D0
:1052A00088600861002048618861C861086208461A
:1052B000FCF76CFF08B1FBF7D2FB0022D4F8C40264
:1052C0001823114604F53174FCF794FB582300228F
:1052D00080212068FCF78EFBC023002281212068FA
:1052E000FCF788FB4FF48873002201212068FCF74B
:1052F00081FB4FF48073002282212068FCF77AFB47
:10530000002010BD98050020005C00400A0601F056
:105310007F01D0F8C40201EB810100EBC10002D58E
:1053200090F82A00704790F86A01704710B51C4643
:105330001346D0F8C4022246FCF7F0FDBDE8104049
:10534000FFF7E2BE10B5D0F8C402FCF717FEBDE8C7
:105350001040FFF7D9BE70B50125044680F89C5275
:105360000020C4F894026060C4F8A402D4F8B80223
:10537000E0B1D4F8BC1221B1426812B1002120463C
:1053800090470022402311462046FFF7CFFF4026DA
:10539000A4F864513346002280212046C4F860619D
:1053A000FFF7C4FFA5840020266270BD032070BDF6
:1053B00090F89C12042903D190F89D1280F89C1259
:1053C0000020704710B5D0F8B81221B190F89C2297
:1053D000032A02D004E0032010BDC96901B1884747
:1053E000002010BD01740020704710B5D0F8C40231
:1053F000FCF77EFFBDE81040FFF786BE70B504469F
:1054000000F2AA20054600F04DF80120C4F89402ED
:10541000B4F8B002C4F8980294F8AA0210F01F0180
:105420000AD001290ED0022912D000F080012046B6
:10543000BDE8704000F012B829462046BDE8704033
:1054400000F0C2B829462046BDE8704000F0E6B939
:1054500029462046BDE8704000F040B910B5D0F8AC
:10546000C402FCF7A4FDBDE81040FFF74DBE10B527
:10547000D0F8C402FCF757FFBDE81040FFF744BE68
:1054800090F89C1280F89D12042180F89C12002054
:10549000704710B5D0F8C402FCF7B9FDBDE8104064
:1054A000FFF732BE70B5054611F8010B2870087879
:1054B00068704C1C2046FEF71AFE6880A41C20462B
:1054C000FEF715FEA880A01CFEF711FEE88070BD57
:1054D00038B504460020ADF8000049B1C4F8B81250
:1054E000C96A19B168468847C4F8CC02002038BDA3
:1054F000032038BD02460320D2F8B832002B02D078
:105500001B681046184770472DE9F0410F462C4E96
:105510008978002504463170012906D9394620468C
:10552000FFF714FD0320BDE8F08194F89C020228E7
:105530000CD003281DD039462046FFF707FD3178EF
:105540002046FFF7EBFC03252846ECE799B32046FD
:105550006160FFF7CFFF050004D039462046FFF712
:10556000F5FCF1E72046FFF723FD032084F89C02B9
:10557000EAE74FF00208C1B1606888421BD0C1B2AF
:105580002046FFF7CBFC317820466160FFF7B2FF81
:10559000050010D039462046FFF7D8FC2179204677
:1055A000FFF7BCFC84F89C82CEE784F89C822046FE
:1055B0006160FFF7B3FC2046FFF7FAFCC4E7000088
:1055C00078000020FFF753BF2DE9F0410A7800254D
:1055D00012F0600208D0202A01D0402A71D1D0F800
:1055E000B8229268904731E04B78002201260A2BBE
:1055F00067D2DFE803F0415E6658660805662D292C
:10560000FFF7E1FC5FE004468888D8B9C888C8B9CC
:105610004888802816D200F07F0794F89C0203285F
:1056200010D084F89E7239462046FFF7DEFE2046F1
:10563000FFF7BEFC1FB1022084F89C0243E084F80F
:105640009C6240E020463CE0FFF75EFF05463AE002
:10565000CB88012B35D190F89C32012B04D0022B42
:1056600002D0032B2DD104E08260012200F1080159
:1056700016E00122011D13E090F89C22012A03D0BC
:10568000022A01D0032A1CD1CA88022A19D1C66075
:10569000D0F8A41209B10321C160022200F10C016B
:1056A000FFF779FC0FE0498801290CD1C0F8A4620A
:1056B00011E090F89C32012B08D0022B06D0032B6E
:1056C00004D0FFF743FC2846BDE8F0814988012952
:1056D000F9D1C0F8A422FFF76BFCF4E72DE9F04103
:1056E0000D46044628780026097910F060000BD09A
:1056F000202801D040286DD1D4F8B802294682680C
:1057000020469047064686E06878A8B3012822D054
:1057100003287CD194F89C02022802D0032876D179
:105720000BE0002973D0802971D02046FFF796FE48
:1057300080212046FFF792FE6DE0688838B931B1CC
:10574000802904D0E88810B92046FFF787FE20465C
:10575000FFF72EFC5FE094F89C020228E1D00328BA
:1057600055D16888A8BB480602D02046FFF7EBFC5D
:105770002046FFF71DFCBFE7FFE794F89C020027D7
:10578000022802D0032842D111E009B180293ED17C
:10579000080601F07F0000EB800004EB800101D5DA
:1057A000143101E001F5AA7102220F602BE0080616
:1057B00001F00F0000EB800004EB80000BD5808C23
:1057C00040B101F07F0000EB800004EB8005143550
:1057D0000CE020E01BE0B0F86401C0B101F07F00F4
:1057E00000EB800004EB800505F5AA7541B1802926
:1057F00006D02046FFF78AFD10B10120286000E0A6
:105800002F60022229462046FFF7C5FB03E0294608
:105810002046FFF79BFB3046BDE8F08170B5064699
:10582000087800240D4610F0600003D0202801D035
:10583000402817D196F89C02012803D0022801D0F5
:1058400003280FD1287901280CD8D6F8B80282682D
:10585000304690470446E888204306D13046FFF79B
:10586000A7FB02E03046FFF771FB204670BD704792
:1058700000487047780300202DE9F0470C78002697
:1058800030F8243048F68F121340CA78002A7DD0B1
:10589000012A7CD0022A02D0032A79D0012648F2BC
:1058A0008002134320F824300D7830F8254048F664
:1058B0008F731C402C43144320F825400D7B48F285
:1058C000C00748F6BF744CF2800C4BF68F79E5B3F5
:1058D000CD7891F80080022DC24630F828507CD057
:1058E00048F68F6805EA080555EA020520F82A50AF
:1058F000B0F8505091F80080054405EBC805B1F8A8
:10590000088028F00108A5F80084B0F8505091F8FC
:105910000080054405EBC805B1F80A8028F00108AD
:10592000A5F804844D7891F80080002D30F82850B7
:105930004FEA45457ED0002D06DA30F828501D404C
:1059400045EA0C0520F8285000E030E091F800C04E
:1059500030F82C506D0605D530F82C501D403D43D5
:1059600020F82C50CB780D78012B30F8253003EA45
:10597000040301D083F02003134320F825300B7873
:1059800030F8231001EA0901114302E006E00BE0C0
:1059900007E020F823103046BDE8F08743F4007399
:1059A0007DE743F4C0637AE743F4806377E74D789B
:1059B0004DB3B0F8505091F800C0054405EBCC054C
:1059C000B1F806C02CF0010CA5F800C491F800C095
:1059D00030F82C506D0607D500E05BE030F82C5015
:1059E0001D403D4320F82C50CB78012B06D00B787E
:1059F00030F82310214081F02001C5E70B7830F802
:105A000023102140C0E7B0F850400D78044404EB67
:105A1000C504CD8825F00105A4F80454B0F8504021
:105A20000D78044404EBC5040D6904F206443E2DD0
:105A30000AD900E034E06F09ED0600D17F1E4FF473
:105A4000004545EA872508E0E5B16F08ED0700D07D
:105A50007F1C4FF6FF7505EA872525800D7830F805
:105A60002540640406D530F825401C4044EA0C0467
:105A700020F825400B7830F8231001EA090181F461
:105A8000405181E7258825F4F8452580258845F48F
:105A90000045E2E71D4048F2801845EA080525E781
:105AA000002D06DA30F828501D4045EA0C0520F894
:105AB000285091F800C030F82C506D0605D530F80C
:105AC0002C501D403D4320F82C500D7830F82530E7
:105AD00003EA090383F44053134320F825308DE78C
